{
  "contractName": "Bank",
  "abi": [
    {
      "inputs": [
        {
          "internalType": "contract Token",
          "name": "_token",
          "type": "address"
        }
      ],
      "stateMutability": "nonpayable",
      "type": "constructor"
    },
    {
      "inputs": [
        {
          "internalType": "address",
          "name": "",
          "type": "address"
        }
      ],
      "name": "doubleInterestDeposit",
      "outputs": [
        {
          "internalType": "uint256",
          "name": "clientsBalanceBNB",
          "type": "uint256"
        },
        {
          "internalType": "uint256",
          "name": "depositTimeStamp",
          "type": "uint256"
        },
        {
          "internalType": "uint256",
          "name": "interest",
          "type": "uint256"
        },
        {
          "internalType": "bool",
          "name": "isDeposited",
          "type": "bool"
        }
      ],
      "stateMutability": "view",
      "type": "function",
      "constant": true
    },
    {
      "inputs": [
        {
          "internalType": "address",
          "name": "",
          "type": "address"
        }
      ],
      "name": "regularDeposit",
      "outputs": [
        {
          "internalType": "uint256",
          "name": "clientsBalanceBNB",
          "type": "uint256"
        },
        {
          "internalType": "uint256",
          "name": "depositTimeStamp",
          "type": "uint256"
        },
        {
          "internalType": "uint256",
          "name": "interest",
          "type": "uint256"
        },
        {
          "internalType": "bool",
          "name": "isDeposited",
          "type": "bool"
        }
      ],
      "stateMutability": "view",
      "type": "function",
      "constant": true
    },
    {
      "inputs": [],
      "name": "deposit",
      "outputs": [],
      "stateMutability": "payable",
      "type": "function",
      "payable": true
    },
    {
      "inputs": [],
      "name": "depositDoubleInteresr",
      "outputs": [],
      "stateMutability": "payable",
      "type": "function",
      "payable": true
    },
    {
      "inputs": [],
      "name": "withdraw",
      "outputs": [],
      "stateMutability": "payable",
      "type": "function",
      "payable": true
    },
    {
      "inputs": [],
      "name": "withdrawDoubleInterest",
      "outputs": [],
      "stateMutability": "payable",
      "type": "function",
      "payable": true
    },
    {
      "inputs": [],
      "name": "getClientBalanceBNB",
      "outputs": [
        {
          "internalType": "uint256",
          "name": "",
          "type": "uint256"
        }
      ],
      "stateMutability": "view",
      "type": "function",
      "constant": true
    },
    {
      "inputs": [],
      "name": "getClientBalanceBNBDoubleInterest",
      "outputs": [
        {
          "internalType": "uint256",
          "name": "",
          "type": "uint256"
        }
      ],
      "stateMutability": "view",
      "type": "function",
      "constant": true
    },
    {
      "inputs": [],
      "name": "getClientBalanceBMIW",
      "outputs": [
        {
          "internalType": "uint256",
          "name": "",
          "type": "uint256"
        }
      ],
      "stateMutability": "view",
      "type": "function",
      "constant": true
    },
    {
      "inputs": [],
      "name": "getClientBalanceBMIWDoubleInterest",
      "outputs": [
        {
          "internalType": "uint256",
          "name": "",
          "type": "uint256"
        }
      ],
      "stateMutability": "view",
      "type": "function",
      "constant": true
    },
    {
      "inputs": [],
      "name": "calculateBMIW",
      "outputs": [
        {
          "internalType": "uint256",
          "name": "",
          "type": "uint256"
        }
      ],
      "stateMutability": "view",
      "type": "function",
      "constant": true
    },
    {
      "inputs": [],
      "name": "calculateBMIWDoubleInterest",
      "outputs": [
        {
          "internalType": "uint256",
          "name": "",
          "type": "uint256"
        }
      ],
      "stateMutability": "view",
      "type": "function",
      "constant": true
    },
    {
      "inputs": [
        {
          "internalType": "uint256",
          "name": "amountOfBMIW",
          "type": "uint256"
        }
      ],
      "name": "buyBMIW",
      "outputs": [
        {
          "internalType": "bool",
          "name": "",
          "type": "bool"
        }
      ],
      "stateMutability": "payable",
      "type": "function",
      "payable": true
    },
    {
      "inputs": [],
      "name": "getBalance",
      "outputs": [
        {
          "internalType": "uint256",
          "name": "",
          "type": "uint256"
        }
      ],
      "stateMutability": "view",
      "type": "function",
      "constant": true
    },
    {
      "inputs": [],
      "name": "getBNBFromSales",
      "outputs": [
        {
          "internalType": "uint256",
          "name": "",
          "type": "uint256"
        }
      ],
      "stateMutability": "view",
      "type": "function",
      "constant": true
    }
  ],
  "bytecode": "0x608060405260006003553480156200001657600080fd5b50604051620019083803806200190883398181016040528101906200003c919062000101565b806000806101000a81548173ffffffffffffffffffffffffffffffffffffffff021916908373ffffffffffffffffffffffffffffffffffffffff1602179055505062000133565b600080fd5b600073ffffffffffffffffffffffffffffffffffffffff82169050919050565b6000620000b58262000088565b9050919050565b6000620000c982620000a8565b9050919050565b620000db81620000bc565b8114620000e757600080fd5b50565b600081519050620000fb81620000d0565b92915050565b6000602082840312156200011a576200011962000083565b5b60006200012a84828501620000ea565b91505092915050565b6117c580620001436000396000f3fe6080604052600436106100e85760003560e01c8063baa8fda41161008a578063d5a80e0211610059578063d5a80e0214610292578063e125e304146102bd578063f5bdd954146102c7578063ffd6ca83146102f2576100e8565b8063baa8fda414610207578063bf596d5f14610232578063c6b42d571461025d578063d0e30db014610288576100e8565b80633ccfd60b116100c65780633ccfd60b146101625780635b2f664d1461016c5780637e0f65e21461019c578063b22b51bf146101dc576100e8565b806307d40639146100ed57806312065fe01461012d5780631f08cd5a14610158575b600080fd5b3480156100f957600080fd5b50610114600480360381019061010f91906112a2565b61031d565b6040516101249493929190611303565b60405180910390f35b34801561013957600080fd5b5061014261035a565b60405161014f9190611348565b60405180910390f35b610160610379565b005b61016a6104ff565b005b6101866004803603810190610181919061138f565b610806565b60405161019391906113bc565b60405180910390f35b3480156101a857600080fd5b506101c360048036038101906101be91906112a2565b610932565b6040516101d39493929190611303565b60405180910390f35b3480156101e857600080fd5b506101f161096f565b6040516101fe9190611348565b60405180910390f35b34801561021357600080fd5b5061021c6109cb565b6040516102299190611348565b60405180910390f35b34801561023e57600080fd5b50610247610af9565b6040516102549190611348565b60405180910390f35b34801561026957600080fd5b50610272610b55565b60405161027f9190611348565b60405180910390f35b610290610b5f565b005b34801561029e57600080fd5b506102a7610ce4565b6040516102b49190611348565b60405180910390f35b6102c5610e12565b005b3480156102d357600080fd5b506102dc6111ab565b6040516102e99190611348565b60405180910390f35b3480156102fe57600080fd5b506103076111f5565b6040516103149190611348565b60405180910390f35b60026020528060005260406000206000915090508060000154908060010154908060020154908060030160009054906101000a900460ff16905084565b60003073ffffffffffffffffffffffffffffffffffffffff1631905090565b610381610af9565b600260003373ffffffffffffffffffffffffffffffffffffffff1673ffffffffffffffffffffffffffffffffffffffff1681526020019081526020016000206002018190555034600260003373ffffffffffffffffffffffffffffffffffffffff1673ffffffffffffffffffffffffffffffffffffffff168152602001908152602001600020600001546104159190611406565b600260003373ffffffffffffffffffffffffffffffffffffffff1673ffffffffffffffffffffffffffffffffffffffff1681526020019081526020016000206000018190555042600260003373ffffffffffffffffffffffffffffffffffffffff1673ffffffffffffffffffffffffffffffffffffffff168152602001908152602001600020600101819055506001600260003373ffffffffffffffffffffffffffffffffffffffff1673ffffffffffffffffffffffffffffffffffffffff16815260200190815260200160002060030160006101000a81548160ff021916908315150217905550565b60011515600160003373ffffffffffffffffffffffffffffffffffffffff1673ffffffffffffffffffffffffffffffffffffffff16815260200190815260200160002060030160009054906101000a900460ff16151514610595576040517f08c379a000000000000000000000000000000000000000000000000000000000815260040161058c906114b9565b60405180910390fd5b66b1a2bc2ec5000034146105de576040517f08c379a00000000000000000000000000000000000000000000000000000000081526004016105d59061154b565b60405180910390fd5b60006105e861096f565b90503373ffffffffffffffffffffffffffffffffffffffff166108fc661c6bf526340000600160003373ffffffffffffffffffffffffffffffffffffffff1673ffffffffffffffffffffffffffffffffffffffff16815260200190815260200160002060000154610659919061156b565b9081150290604051600060405180830381858888f19350505050158015610684573d6000803e3d6000fd5b5066b1a2bc2ec50000600160003373ffffffffffffffffffffffffffffffffffffffff1673ffffffffffffffffffffffffffffffffffffffff1681526020019081526020016000206000018190555060008054906101000a900473ffffffffffffffffffffffffffffffffffffffff1673ffffffffffffffffffffffffffffffffffffffff166340c10f1933836040518363ffffffff1660e01b815260040161072e9291906115ae565b600060405180830381600087803b15801561074857600080fd5b505af115801561075c573d6000803e3d6000fd5b505050506000600160003373ffffffffffffffffffffffffffffffffffffffff1673ffffffffffffffffffffffffffffffffffffffff168152602001908152602001600020600101819055506000600160003373ffffffffffffffffffffffffffffffffffffffff1673ffffffffffffffffffffffffffffffffffffffff16815260200190815260200160002060030160006101000a81548160ff02191690831515021790555050565b600066038d7ea4c680008261081b91906115d7565b34101561085d576040517f08c379a00000000000000000000000000000000000000000000000000000000081526004016108549061167d565b60405180910390fd5b60006001905066038d7ea4c680008361087691906115d7565b6003546108839190611406565b60038190555060008054906101000a900473ffffffffffffffffffffffffffffffffffffffff1673ffffffffffffffffffffffffffffffffffffffff166340c10f1933670de0b6b3a7640000866108da91906115d7565b6040518363ffffffff1660e01b81526004016108f79291906115ae565b600060405180830381600087803b15801561091157600080fd5b505af1158015610925573d6000803e3d6000fd5b5050505080915050919050565b60016020528060005260406000206000915090508060000154908060010154908060020154908060030160009054906101000a900460ff16905084565b60006109796109cb565b600160003373ffffffffffffffffffffffffffffffffffffffff1673ffffffffffffffffffffffffffffffffffffffff168152602001908152602001600020600201546109c69190611406565b905090565b6000600160003373ffffffffffffffffffffffffffffffffffffffff1673ffffffffffffffffffffffffffffffffffffffff16815260200190815260200160002060030160009054906101000a900460ff1615610af1576000600160003373ffffffffffffffffffffffffffffffffffffffff1673ffffffffffffffffffffffffffffffffffffffff1681526020019081526020016000206001015442610a72919061156b565b905060006301e33731600160003373ffffffffffffffffffffffffffffffffffffffff1673ffffffffffffffffffffffffffffffffffffffff168152602001908152602001600020600001546064610aca91906115d7565b610ad491906116cc565b905060008282610ae491906115d7565b9050809350505050610af6565b600090505b90565b6000610b03610ce4565b600260003373ffffffffffffffffffffffffffffffffffffffff1673ffffffffffffffffffffffffffffffffffffffff16815260200190815260200160002060020154610b509190611406565b905090565b6000600354905090565b610b6761096f565b600160003373ffffffffffffffffffffffffffffffffffffffff1673ffffffffffffffffffffffffffffffffffffffff1681526020019081526020016000206002018190555034600160003373ffffffffffffffffffffffffffffffffffffffff1673ffffffffffffffffffffffffffffffffffffffff16815260200190815260200160002060000154610bfb9190611406565b600160003373ffffffffffffffffffffffffffffffffffffffff1673ffffffffffffffffffffffffffffffffffffffff1681526020019081526020016000206000018190555042600160003373ffffffffffffffffffffffffffffffffffffffff1673ffffffffffffffffffffffffffffffffffffffff1681526020019081526020016000206001018190555060018060003373ffffffffffffffffffffffffffffffffffffffff1673ffffffffffffffffffffffffffffffffffffffff16815260200190815260200160002060030160006101000a81548160ff021916908315150217905550565b6000600260003373ffffffffffffffffffffffffffffffffffffffff1673ffffffffffffffffffffffffffffffffffffffff16815260200190815260200160002060030160009054906101000a900460ff1615610e0a576000600260003373ffffffffffffffffffffffffffffffffffffffff1673ffffffffffffffffffffffffffffffffffffffff1681526020019081526020016000206001015442610d8b919061156b565b905060006301e33731600260003373ffffffffffffffffffffffffffffffffffffffff1673ffffffffffffffffffffffffffffffffffffffff1681526020019081526020016000206000015460c8610de391906115d7565b610ded91906116cc565b905060008282610dfd91906115d7565b9050809350505050610e0f565b600090505b90565b60011515600260003373ffffffffffffffffffffffffffffffffffffffff1673ffffffffffffffffffffffffffffffffffffffff16815260200190815260200160002060030160009054906101000a900460ff16151514610ea8576040517f08c379a0000000000000000000000000000000000000000000000000000000008152600401610e9f906114b9565b60405180910390fd5b66b1a2bc2ec500003414610ef1576040517f08c379a0000000000000000000000000000000000000000000000000000000008152600401610ee89061154b565b60405180910390fd5b610258600260003373ffffffffffffffffffffffffffffffffffffffff1673ffffffffffffffffffffffffffffffffffffffff1681526020019081526020016000206001015442610f42919061156b565b1015610f83576040517f08c379a0000000000000000000000000000000000000000000000000000000008152600401610f7a9061176f565b60405180910390fd5b6000610f8d61096f565b90503373ffffffffffffffffffffffffffffffffffffffff166108fc661c6bf526340000600260003373ffffffffffffffffffffffffffffffffffffffff1673ffffffffffffffffffffffffffffffffffffffff16815260200190815260200160002060000154610ffe919061156b565b9081150290604051600060405180830381858888f19350505050158015611029573d6000803e3d6000fd5b5066b1a2bc2ec50000600260003373ffffffffffffffffffffffffffffffffffffffff1673ffffffffffffffffffffffffffffffffffffffff1681526020019081526020016000206000018190555060008054906101000a900473ffffffffffffffffffffffffffffffffffffffff1673ffffffffffffffffffffffffffffffffffffffff166340c10f1933836040518363ffffffff1660e01b81526004016110d39291906115ae565b600060405180830381600087803b1580156110ed57600080fd5b505af1158015611101573d6000803e3d6000fd5b505050506000600260003373ffffffffffffffffffffffffffffffffffffffff1673ffffffffffffffffffffffffffffffffffffffff168152602001908152602001600020600101819055506000600260003373ffffffffffffffffffffffffffffffffffffffff1673ffffffffffffffffffffffffffffffffffffffff16815260200190815260200160002060030160006101000a81548160ff02191690831515021790555050565b6000600160003373ffffffffffffffffffffffffffffffffffffffff1673ffffffffffffffffffffffffffffffffffffffff16815260200190815260200160002060000154905090565b6000600260003373ffffffffffffffffffffffffffffffffffffffff1673ffffffffffffffffffffffffffffffffffffffff16815260200190815260200160002060000154905090565b600080fd5b600073ffffffffffffffffffffffffffffffffffffffff82169050919050565b600061126f82611244565b9050919050565b61127f81611264565b811461128a57600080fd5b50565b60008135905061129c81611276565b92915050565b6000602082840312156112b8576112b761123f565b5b60006112c68482850161128d565b91505092915050565b6000819050919050565b6112e2816112cf565b82525050565b60008115159050919050565b6112fd816112e8565b82525050565b600060808201905061131860008301876112d9565b61132560208301866112d9565b61133260408301856112d9565b61133f60608301846112f4565b95945050505050565b600060208201905061135d60008301846112d9565b92915050565b61136c816112cf565b811461137757600080fd5b50565b60008135905061138981611363565b92915050565b6000602082840312156113a5576113a461123f565b5b60006113b38482850161137a565b91505092915050565b60006020820190506113d160008301846112f4565b92915050565b7f4e487b7100000000000000000000000000000000000000000000000000000000600052601160045260246000fd5b6000611411826112cf565b915061141c836112cf565b9250827fffffffffffffffffffffffffffffffffffffffffffffffffffffffffffffffff03821115611451576114506113d7565b5b828201905092915050565b600082825260208201905092915050565b7f4572726f722c206e6f2070726576696f7573206465706f736974000000000000600082015250565b60006114a3601a8361145c565b91506114ae8261146d565b602082019050919050565b600060208201905081810360008301526114d281611496565b9050919050565b7f4d7573742070726f7669646520302e303520424e4220746f207769746864726160008201527f7700000000000000000000000000000000000000000000000000000000000000602082015250565b600061153560218361145c565b9150611540826114d9565b604082019050919050565b6000602082019050818103600083015261156481611528565b9050919050565b6000611576826112cf565b9150611581836112cf565b925082821015611594576115936113d7565b5b828203905092915050565b6115a881611264565b82525050565b60006040820190506115c3600083018561159f565b6115d060208301846112d9565b9392505050565b60006115e2826112cf565b91506115ed836112cf565b9250817fffffffffffffffffffffffffffffffffffffffffffffffffffffffffffffffff0483118215151615611626576116256113d7565b5b828202905092915050565b7f496e737566696369656e7420616d6f756e74206f6620424e4200000000000000600082015250565b600061166760198361145c565b915061167282611631565b602082019050919050565b600060208201905081810360008301526116968161165a565b9050919050565b7f4e487b7100000000000000000000000000000000000000000000000000000000600052601260045260246000fd5b60006116d7826112cf565b91506116e2836112cf565b9250826116f2576116f161169d565b5b828204905092915050565b7f4d7573742077616974206174206c65617374203130206d696e7574657320626560008201527f666f726520776974686472617700000000000000000000000000000000000000602082015250565b6000611759602d8361145c565b9150611764826116fd565b604082019050919050565b600060208201905081810360008301526117888161174c565b905091905056fea2646970667358221220e4cfaf5922e136ecf270b140cd03180ac1292ecfac561670d3296bd336dee0af64736f6c634300080a0033",
  "immutableReferences": {},
  "source": "pragma solidity ^0.8.10;\r\nimport \"./Token.sol\";\r\n\r\ncontract Bank {\r\n    struct RegularDeposit {\r\n        uint clientsBalanceBNB;\r\n        uint depositTimeStamp;\r\n        uint interest;\r\n        bool isDeposited;\r\n    }\r\n\r\n    struct DoubleInterestDeposit {\r\n        uint clientsBalanceBNB;\r\n        uint depositTimeStamp;\r\n        uint interest;\r\n        bool isDeposited;\r\n    }\r\n\r\n    //assign Token contract to variable\r\n    Token private token;\r\n    // hash address - uint\r\n    mapping(address => RegularDeposit) public regularDeposit;\r\n    mapping(address => DoubleInterestDeposit) public doubleInterestDeposit;\r\n    uint bnbFromSales = 0;\r\n\r\n    //pass as constructor argument deployed Token contract\r\n    constructor(Token _token) public {\r\n        //assign token deployed contract to variable\r\n        token = _token;\r\n    }\r\n\r\n    function deposit() public payable {\r\n        regularDeposit[msg.sender].interest = getClientBalanceBMIW(); \r\n        regularDeposit[msg.sender].clientsBalanceBNB =\r\n            regularDeposit[msg.sender].clientsBalanceBNB +\r\n            msg.value;\r\n        regularDeposit[msg.sender].depositTimeStamp = block.timestamp;\r\n        regularDeposit[msg.sender].isDeposited = true;\r\n    }\r\n\r\n    function depositDoubleInteresr() public payable {\r\n        doubleInterestDeposit[msg.sender].interest = getClientBalanceBMIWDoubleInterest();\r\n        doubleInterestDeposit[msg.sender].clientsBalanceBNB =\r\n            doubleInterestDeposit[msg.sender].clientsBalanceBNB +\r\n            msg.value;\r\n        doubleInterestDeposit[msg.sender].depositTimeStamp = block.timestamp;\r\n        doubleInterestDeposit[msg.sender].isDeposited = true;\r\n    }\r\n\r\n    function withdraw() public payable {\r\n        require(\r\n            regularDeposit[msg.sender].isDeposited == true,\r\n            \"Error, no previous deposit\"\r\n        );\r\n        require(msg.value == 0.05 ether, \"Must provide 0.05 BNB to withdraw\");\r\n\r\n        uint interest = getClientBalanceBMIW();\r\n\r\n        // return the BNB to original wallet\r\n        payable(msg.sender).transfer(\r\n            regularDeposit[msg.sender].clientsBalanceBNB - 0.008 ether\r\n        );\r\n        regularDeposit[msg.sender].clientsBalanceBNB = 0.05 ether;\r\n\r\n        // Crear el token y lo envia a la addres del msg.sender\r\n        token.mint(msg.sender, interest);\r\n        // reiniciar reposito\r\n        regularDeposit[msg.sender].depositTimeStamp = 0;\r\n        regularDeposit[msg.sender].isDeposited = false;\r\n    }\r\n\r\n    function withdrawDoubleInterest() public payable {\r\n        require(\r\n            doubleInterestDeposit[msg.sender].isDeposited == true,\r\n            \"Error, no previous deposit\"\r\n        );\r\n        require(msg.value == 0.05 ether, \"Must provide 0.05 BNB to withdraw\");\r\n        require(\r\n            (block.timestamp -\r\n                doubleInterestDeposit[msg.sender].depositTimeStamp) >= 600,\r\n            \"Must wait at least 10 minutes before withdraw\"\r\n        );\r\n\r\n        uint interest = getClientBalanceBMIW();\r\n\r\n        // return the BNB to original wallet\r\n        payable(msg.sender).transfer(\r\n            doubleInterestDeposit[msg.sender].clientsBalanceBNB - 0.008 ether\r\n        );\r\n        doubleInterestDeposit[msg.sender].clientsBalanceBNB = 0.05 ether;\r\n\r\n        // Crear el token y lo envia a la addres del msg.sender\r\n        token.mint(msg.sender, interest);\r\n        // reiniciar reposito\r\n        doubleInterestDeposit[msg.sender].depositTimeStamp = 0;\r\n        doubleInterestDeposit[msg.sender].isDeposited = false;\r\n    }\r\n\r\n    function getClientBalanceBNB() public view returns (uint) {\r\n        return regularDeposit[msg.sender].clientsBalanceBNB;\r\n    }\r\n\r\n    function getClientBalanceBNBDoubleInterest() public view returns (uint) {\r\n        return doubleInterestDeposit[msg.sender].clientsBalanceBNB;\r\n    }\r\n\r\n    function getClientBalanceBMIW() public view returns (uint) {\r\n        return regularDeposit[msg.sender].interest + calculateBMIW();\r\n    }\r\n\r\n    function getClientBalanceBMIWDoubleInterest() public view returns (uint) {\r\n        return doubleInterestDeposit[msg.sender].interest + calculateBMIWDoubleInterest();\r\n    }\r\n\r\n    function calculateBMIW() public view returns (uint) {\r\n        if (regularDeposit[msg.sender].isDeposited) {\r\n            uint depositTotalTime = block.timestamp -\r\n                regularDeposit[msg.sender].depositTimeStamp;\r\n            uint interestPerSecond = (100 *\r\n                regularDeposit[msg.sender].clientsBalanceBNB) / 31668017;\r\n            uint interest = interestPerSecond * depositTotalTime;\r\n\r\n            return interest;\r\n        }\r\n        return 0;\r\n    }\r\n\r\n    function calculateBMIWDoubleInterest() public view returns (uint) {\r\n        if (doubleInterestDeposit[msg.sender].isDeposited) {\r\n            uint depositTotalTime = block.timestamp -\r\n                doubleInterestDeposit[msg.sender].depositTimeStamp;\r\n            uint interestPerSecond = (200 *\r\n                doubleInterestDeposit[msg.sender].clientsBalanceBNB) / 31668017;\r\n            uint interest = interestPerSecond * depositTotalTime;\r\n\r\n            return interest;\r\n        }\r\n        return 0;\r\n    }\r\n\r\n    function buyBMIW(uint amountOfBMIW) payable public returns (bool) {\r\n\r\n        require(msg.value >= amountOfBMIW*0.001 ether, \"Insuficient amount of BNB\");\r\n\r\n        bool sucess = true;\r\n\r\n        bnbFromSales = bnbFromSales + (amountOfBMIW*0.001 ether);\r\n        token.mint(msg.sender, amountOfBMIW * 1 ether);\r\n\r\n        return sucess;\r\n    }\r\n\r\n    function getBalance() public view returns (uint256) {\r\n        return payable(address(this)).balance;\r\n    }\r\n\r\n    function getBNBFromSales() public view returns (uint256) {\r\n        return bnbFromSales;\r\n    }\r\n}\r\n",
  "sourcePath": "D:\\Master\\Segundo\\NEW\\Blockchain\\Banco\\bnb1\\contracts\\Bank.sol",
  "compiler": {
    "name": "solc",
    "version": "0.8.10+commit.fc410830.Emscripten.clang"
  },
  "schemaVersion": "3.4.16",
  "updatedAt": "2023-12-17T18:00:56.868Z",
  "networkType": "ethereum",
  "devdoc": {
    "kind": "dev",
    "methods": {},
    "version": 1
  },
  "userdoc": {
    "kind": "user",
    "methods": {},
    "version": 1
  }
}