{
  "contractName": "MyContract",
  "abi": [
    {
      "inputs": [],
      "name": "admin",
      "outputs": [
        {
          "internalType": "address payable",
          "name": "",
          "type": "address"
        }
      ],
      "stateMutability": "view",
      "type": "function",
      "constant": true
    },
    {
      "inputs": [],
      "name": "balanceWei",
      "outputs": [
        {
          "internalType": "uint256",
          "name": "",
          "type": "uint256"
        }
      ],
      "stateMutability": "view",
      "type": "function",
      "constant": true
    },
    {
      "inputs": [
        {
          "internalType": "uint256",
          "name": "",
          "type": "uint256"
        }
      ],
      "name": "tikets",
      "outputs": [
        {
          "internalType": "address",
          "name": "",
          "type": "address"
        }
      ],
      "stateMutability": "view",
      "type": "function",
      "constant": true
    },
    {
      "inputs": [],
      "name": "transferBalanceToAdmin",
      "outputs": [],
      "stateMutability": "nonpayable",
      "type": "function"
    },
    {
      "inputs": [
        {
          "internalType": "uint256",
          "name": "tiketIndex",
          "type": "uint256"
        }
      ],
      "name": "buyTiket",
      "outputs": [
        {
          "internalType": "bool",
          "name": "",
          "type": "bool"
        }
      ],
      "stateMutability": "payable",
      "type": "function",
      "payable": true
    },
    {
      "inputs": [
        {
          "internalType": "uint256",
          "name": "tiketIndex",
          "type": "uint256"
        }
      ],
      "name": "isTicketAvailable",
      "outputs": [
        {
          "internalType": "bool",
          "name": "",
          "type": "bool"
        }
      ],
      "stateMutability": "view",
      "type": "function",
      "constant": true
    },
    {
      "inputs": [
        {
          "internalType": "address",
          "name": "adminAddress",
          "type": "address"
        }
      ],
      "name": "setAdmin",
      "outputs": [],
      "stateMutability": "nonpayable",
      "type": "function"
    },
    {
      "inputs": [],
      "name": "getTikets",
      "outputs": [
        {
          "internalType": "address[16]",
          "name": "",
          "type": "address[16]"
        }
      ],
      "stateMutability": "view",
      "type": "function",
      "constant": true
    },
    {
      "inputs": [],
      "name": "getBalance",
      "outputs": [
        {
          "internalType": "uint256",
          "name": "",
          "type": "uint256"
        }
      ],
      "stateMutability": "view",
      "type": "function",
      "constant": true
    },
    {
      "inputs": [],
      "name": "getBalanceWei",
      "outputs": [
        {
          "internalType": "uint256",
          "name": "",
          "type": "uint256"
        }
      ],
      "stateMutability": "view",
      "type": "function",
      "constant": true
    }
  ],
  "bytecode": "0x6080604052600060105573c8d55b1aee0af99a99a83cab4b80fe54032b75c2601160006101000a81548173ffffffffffffffffffffffffffffffffffffffff021916908373ffffffffffffffffffffffffffffffffffffffff16021790555034801561006a57600080fd5b50610d638061007a6000396000f3fe6080604052600436106100915760003560e01c80638f627444116100595780638f6274441461016e578063be4fb14d14610199578063e8eedc08146101c4578063f520047a14610201578063f851a4401461022c57610091565b806312065fe0146100965780634d63e206146100c157806352ba15e6146100fe578063704b6c02146101155780638aeeae491461013e575b600080fd5b3480156100a257600080fd5b506100ab610257565b6040516100b891906107e1565b60405180910390f35b3480156100cd57600080fd5b506100e860048036038101906100e3919061082d565b610276565b6040516100f5919061089b565b60405180910390f35b34801561010a57600080fd5b506101136102ac565b005b34801561012157600080fd5b5061013c600480360381019061013791906108e2565b6103b1565b005b6101586004803603810190610153919061082d565b610485565b604051610165919061092a565b60405180910390f35b34801561017a57600080fd5b50610183610640565b60405161019091906109f0565b60405180910390f35b3480156101a557600080fd5b506101ae6106c1565b6040516101bb91906107e1565b60405180910390f35b3480156101d057600080fd5b506101eb60048036038101906101e6919061082d565b6106c7565b6040516101f8919061092a565b60405180910390f35b34801561020d57600080fd5b50610216610775565b60405161022391906107e1565b60405180910390f35b34801561023857600080fd5b5061024161077f565b60405161024e9190610a2d565b60405180910390f35b60003073ffffffffffffffffffffffffffffffffffffffff1631905090565b6000816010811061028657600080fd5b016000915054906101000a900473ffffffffffffffffffffffffffffffffffffffff1681565b601160009054906101000a900473ffffffffffffffffffffffffffffffffffffffff1673ffffffffffffffffffffffffffffffffffffffff163373ffffffffffffffffffffffffffffffffffffffff161461033c576040517f08c379a000000000000000000000000000000000000000000000000000000000815260040161033390610aa5565b60405180910390fd5b601160009054906101000a900473ffffffffffffffffffffffffffffffffffffffff1673ffffffffffffffffffffffffffffffffffffffff166108fc6010549081150290604051600060405180830381858888f193505050501580156103a6573d6000803e3d6000fd5b506000601081905550565b601160009054906101000a900473ffffffffffffffffffffffffffffffffffffffff1673ffffffffffffffffffffffffffffffffffffffff163373ffffffffffffffffffffffffffffffffffffffff1614610441576040517f08c379a000000000000000000000000000000000000000000000000000000000815260040161043890610aa5565b60405180910390fd5b80601160006101000a81548173ffffffffffffffffffffffffffffffffffffffff021916908373ffffffffffffffffffffffffffffffffffffffff16021790555050565b60008082101580156104985750600f8211155b6104d7576040517f08c379a00000000000000000000000000000000000000000000000000000000081526004016104ce90610b11565b60405180910390fd5b66470de4df8200003414610520576040517f08c379a000000000000000000000000000000000000000000000000000000000815260040161051790610b7d565b60405180910390fd5b600073ffffffffffffffffffffffffffffffffffffffff166000836010811061054c5761054b610b9d565b5b0160009054906101000a900473ffffffffffffffffffffffffffffffffffffffff1673ffffffffffffffffffffffffffffffffffffffff16146105c4576040517f08c379a00000000000000000000000000000000000000000000000000000000081526004016105bb90610c18565b60405180910390fd5b34601060008282546105d69190610c67565b9250508190555060006001905033600084601081106105f8576105f7610b9d565b5b0160006101000a81548173ffffffffffffffffffffffffffffffffffffffff021916908373ffffffffffffffffffffffffffffffffffffffff16021790555080915050919050565b6106486107a5565b60006010806020026040519081016040528092919082601080156106b7576020028201915b8160009054906101000a900473ffffffffffffffffffffffffffffffffffffffff1673ffffffffffffffffffffffffffffffffffffffff168152602001906001019080831161066d575b5050505050905090565b60105481565b60008073ffffffffffffffffffffffffffffffffffffffff16600083601081106106f4576106f3610b9d565b5b0160009054906101000a900473ffffffffffffffffffffffffffffffffffffffff1673ffffffffffffffffffffffffffffffffffffffff161461076c576040517f08c379a000000000000000000000000000000000000000000000000000000000815260040161076390610d0d565b60405180910390fd5b60019050919050565b6000601054905090565b601160009054906101000a900473ffffffffffffffffffffffffffffffffffffffff1681565b604051806102000160405280601090602082028036833780820191505090505090565b6000819050919050565b6107db816107c8565b82525050565b60006020820190506107f660008301846107d2565b92915050565b600080fd5b61080a816107c8565b811461081557600080fd5b50565b60008135905061082781610801565b92915050565b600060208284031215610843576108426107fc565b5b600061085184828501610818565b91505092915050565b600073ffffffffffffffffffffffffffffffffffffffff82169050919050565b60006108858261085a565b9050919050565b6108958161087a565b82525050565b60006020820190506108b0600083018461088c565b92915050565b6108bf8161087a565b81146108ca57600080fd5b50565b6000813590506108dc816108b6565b92915050565b6000602082840312156108f8576108f76107fc565b5b6000610906848285016108cd565b91505092915050565b60008115159050919050565b6109248161090f565b82525050565b600060208201905061093f600083018461091b565b92915050565b600060109050919050565b600081905092915050565b6000819050919050565b61096e8161087a565b82525050565b60006109808383610965565b60208301905092915050565b6000602082019050919050565b6109a281610945565b6109ac8184610950565b92506109b78261095b565b8060005b838110156109e85781516109cf8782610974565b96506109da8361098c565b9250506001810190506109bb565b505050505050565b600061020082019050610a066000830184610999565b92915050565b6000610a178261085a565b9050919050565b610a2781610a0c565b82525050565b6000602082019050610a426000830184610a1e565b92915050565b600082825260208201905092915050565b7f596f7520617265206e6f742068652061646d696e000000000000000000000000600082015250565b6000610a8f601483610a48565b9150610a9a82610a59565b602082019050919050565b60006020820190508181036000830152610abe81610a82565b9050919050565b7f54686973207469636b657420646f6573206e6f74206578697374000000000000600082015250565b6000610afb601a83610a48565b9150610b0682610ac5565b602082019050919050565b60006020820190508181036000830152610b2a81610aee565b9050919050565b7f496e737566696369656e7420616d6f756e74206f6620424e4200000000000000600082015250565b6000610b67601983610a48565b9150610b7282610b31565b602082019050919050565b60006020820190508181036000830152610b9681610b5a565b9050919050565b7f4e487b7100000000000000000000000000000000000000000000000000000000600052603260045260246000fd5b7f54686973207469636b65742069732066726f6d206f7468657220706572736f6e600082015250565b6000610c02602083610a48565b9150610c0d82610bcc565b602082019050919050565b60006020820190508181036000830152610c3181610bf5565b9050919050565b7f4e487b7100000000000000000000000000000000000000000000000000000000600052601160045260246000fd5b6000610c72826107c8565b9150610c7d836107c8565b9250828201905080821115610c9557610c94610c38565b5b92915050565b7f4e6f2c2074686973207469636b65742069732066726f6d206f7468657220706560008201527f72736f6e00000000000000000000000000000000000000000000000000000000602082015250565b6000610cf7602483610a48565b9150610d0282610c9b565b604082019050919050565b60006020820190508181036000830152610d2681610cea565b905091905056fea2646970667358221220f3cb844d8b9e0c15d199046ec784180203fccc41fd427dc4b8d7ab522361841364736f6c63430008110033",
  "immutableReferences": {},
  "source": "pragma solidity ^0.8.0;\r\n\r\ncontract MyContract {\r\n    address[16] public tikets;\r\n    uint public balanceWei = 0;\r\n    address payable public admin  = payable(0xc8D55b1AEe0AF99A99A83Cab4b80fE54032b75c2);\r\n\r\n\r\n    function transferBalanceToAdmin () public {\r\n        require(msg.sender == admin, \"You are not he admin\");\r\n        \r\n        admin.transfer(balanceWei);\r\n        balanceWei = 0;\r\n    }\r\n\r\n    function buyTiket(uint tiketIndex) payable public returns (bool) {\r\n        // Comprobacin\r\n        require(tiketIndex >= 0 && tiketIndex <= 15, \"This ticket does not exist\");\r\n        require(msg.value == 0.02 ether, \"Insuficient amount of BNB\");\r\n        require(tikets[tiketIndex] == address(0), \"This ticket is from other person\");\r\n        balanceWei += msg.value;\r\n\r\n\r\n        bool sucess = true;\r\n        tikets[tiketIndex] = msg.sender;\r\n\r\n        return sucess;\r\n    }\r\n\r\n    function isTicketAvailable (uint tiketIndex) public view returns (bool) {\r\n        // Comprobacin\r\n        require(tikets[tiketIndex] == address(0), \"No, this ticket is from other person\");\r\n\r\n        return true;\r\n        \r\n    }\r\n\r\n    function setAdmin (address adminAddress) public {\r\n        // Comprobacin\r\n        require(msg.sender == admin, \"You are not he admin\");\r\n\r\n        admin = payable(adminAddress);\r\n    }\r\n       \r\n    function getTikets() public view returns (address[16] memory) {\r\n        return tikets;\r\n    }\r\n\r\n    function getBalance() public view returns (uint256) {\r\n        return payable(address(this)).balance;\r\n    }\r\n\r\n    function getBalanceWei() public view returns (uint) {\r\n        return balanceWei;\r\n    }\r\n\r\n}\r\n\r\n",
  "sourcePath": "D:\\Master\\Segundo\\NEW\\Blockchain\\bnb1\\contracts\\MyContract.sol",
  "compiler": {
    "name": "solc",
    "version": "0.8.17+commit.8df45f5f.Emscripten.clang"
  },
  "schemaVersion": "3.4.16",
  "updatedAt": "2023-12-15T15:09:56.229Z",
  "networkType": "ethereum",
  "devdoc": {
    "kind": "dev",
    "methods": {},
    "version": 1
  },
  "userdoc": {
    "kind": "user",
    "methods": {},
    "version": 1
  }
}