{
  "contractName": "MyContract",
  "abi": [
    {
      "inputs": [],
      "name": "admin",
      "outputs": [
        {
          "internalType": "address payable",
          "name": "",
          "type": "address"
        }
      ],
      "stateMutability": "view",
      "type": "function",
      "constant": true
    },
    {
      "inputs": [],
      "name": "balanceWei",
      "outputs": [
        {
          "internalType": "uint256",
          "name": "",
          "type": "uint256"
        }
      ],
      "stateMutability": "view",
      "type": "function",
      "constant": true
    },
    {
      "inputs": [
        {
          "internalType": "uint256",
          "name": "",
          "type": "uint256"
        }
      ],
      "name": "tikets",
      "outputs": [
        {
          "internalType": "address",
          "name": "",
          "type": "address"
        }
      ],
      "stateMutability": "view",
      "type": "function",
      "constant": true
    },
    {
      "inputs": [],
      "name": "transferBalanceToAdmin",
      "outputs": [],
      "stateMutability": "nonpayable",
      "type": "function"
    },
    {
      "inputs": [
        {
          "internalType": "uint256",
          "name": "tiketIndex",
          "type": "uint256"
        }
      ],
      "name": "buyTiket",
      "outputs": [
        {
          "internalType": "bool",
          "name": "",
          "type": "bool"
        }
      ],
      "stateMutability": "payable",
      "type": "function",
      "payable": true
    },
    {
      "inputs": [
        {
          "internalType": "uint256",
          "name": "tiketIndex",
          "type": "uint256"
        }
      ],
      "name": "isTicketAvailable",
      "outputs": [
        {
          "internalType": "bool",
          "name": "",
          "type": "bool"
        }
      ],
      "stateMutability": "view",
      "type": "function",
      "constant": true
    },
    {
      "inputs": [],
      "name": "getTikets",
      "outputs": [
        {
          "internalType": "address[16]",
          "name": "",
          "type": "address[16]"
        }
      ],
      "stateMutability": "view",
      "type": "function",
      "constant": true
    },
    {
      "inputs": [],
      "name": "getBalance",
      "outputs": [
        {
          "internalType": "uint256",
          "name": "",
          "type": "uint256"
        }
      ],
      "stateMutability": "view",
      "type": "function",
      "constant": true
    },
    {
      "inputs": [],
      "name": "getBalanceWei",
      "outputs": [
        {
          "internalType": "uint256",
          "name": "",
          "type": "uint256"
        }
      ],
      "stateMutability": "view",
      "type": "function",
      "constant": true
    }
  ],
  "bytecode": "0x6080604052600060105573c8d55b1aee0af99a99a83cab4b80fe54032b75c2601160006101000a81548173ffffffffffffffffffffffffffffffffffffffff021916908373ffffffffffffffffffffffffffffffffffffffff16021790555034801561006a57600080fd5b50610ac38061007a6000396000f3fe6080604052600436106100865760003560e01c80638f627444116100595780638f6274441461013a578063be4fb14d14610165578063e8eedc0814610190578063f520047a146101cd578063f851a440146101f857610086565b806312065fe01461008b5780634d63e206146100b657806352ba15e6146100f35780638aeeae491461010a575b600080fd5b34801561009757600080fd5b506100a0610223565b6040516100ad9190610672565b60405180910390f35b3480156100c257600080fd5b506100dd60048036038101906100d891906106be565b610242565b6040516100ea919061072c565b60405180910390f35b3480156100ff57600080fd5b50610108610278565b005b610124600480360381019061011f91906106be565b61037d565b6040516101319190610762565b60405180910390f35b34801561014657600080fd5b5061014f6104d1565b60405161015c9190610828565b60405180910390f35b34801561017157600080fd5b5061017a610552565b6040516101879190610672565b60405180910390f35b34801561019c57600080fd5b506101b760048036038101906101b291906106be565b610558565b6040516101c49190610762565b60405180910390f35b3480156101d957600080fd5b506101e2610606565b6040516101ef9190610672565b60405180910390f35b34801561020457600080fd5b5061020d610610565b60405161021a9190610865565b60405180910390f35b60003073ffffffffffffffffffffffffffffffffffffffff1631905090565b6000816010811061025257600080fd5b016000915054906101000a900473ffffffffffffffffffffffffffffffffffffffff1681565b601160009054906101000a900473ffffffffffffffffffffffffffffffffffffffff1673ffffffffffffffffffffffffffffffffffffffff163373ffffffffffffffffffffffffffffffffffffffff1614610308576040517f08c379a00000000000000000000000000000000000000000000000000000000081526004016102ff906108dd565b60405180910390fd5b601160009054906101000a900473ffffffffffffffffffffffffffffffffffffffff1673ffffffffffffffffffffffffffffffffffffffff166108fc6010549081150290604051600060405180830381858888f19350505050158015610372573d6000803e3d6000fd5b506000601081905550565b60008082101580156103905750600f8211155b61039957600080fd5b66470de4df82000034146103e2576040517f08c379a00000000000000000000000000000000000000000000000000000000081526004016103d990610949565b60405180910390fd5b34601060008282546103f49190610998565b92505081905550600060019050600073ffffffffffffffffffffffffffffffffffffffff166000846010811061042d5761042c6109cc565b5b0160009054906101000a900473ffffffffffffffffffffffffffffffffffffffff1673ffffffffffffffffffffffffffffffffffffffff16036104c357336000846010811061047f5761047e6109cc565b5b0160006101000a81548173ffffffffffffffffffffffffffffffffffffffff021916908373ffffffffffffffffffffffffffffffffffffffff1602179055506104c8565b600090505b80915050919050565b6104d9610636565b6000601080602002604051908101604052809291908260108015610548576020028201915b8160009054906101000a900473ffffffffffffffffffffffffffffffffffffffff1673ffffffffffffffffffffffffffffffffffffffff16815260200190600101908083116104fe575b5050505050905090565b60105481565b60008073ffffffffffffffffffffffffffffffffffffffff1660008360108110610585576105846109cc565b5b0160009054906101000a900473ffffffffffffffffffffffffffffffffffffffff1673ffffffffffffffffffffffffffffffffffffffff16146105fd576040517f08c379a00000000000000000000000000000000000000000000000000000000081526004016105f490610a6d565b60405180910390fd5b60019050919050565b6000601054905090565b601160009054906101000a900473ffffffffffffffffffffffffffffffffffffffff1681565b604051806102000160405280601090602082028036833780820191505090505090565b6000819050919050565b61066c81610659565b82525050565b60006020820190506106876000830184610663565b92915050565b600080fd5b61069b81610659565b81146106a657600080fd5b50565b6000813590506106b881610692565b92915050565b6000602082840312156106d4576106d361068d565b5b60006106e2848285016106a9565b91505092915050565b600073ffffffffffffffffffffffffffffffffffffffff82169050919050565b6000610716826106eb565b9050919050565b6107268161070b565b82525050565b6000602082019050610741600083018461071d565b92915050565b60008115159050919050565b61075c81610747565b82525050565b60006020820190506107776000830184610753565b92915050565b600060109050919050565b600081905092915050565b6000819050919050565b6107a68161070b565b82525050565b60006107b8838361079d565b60208301905092915050565b6000602082019050919050565b6107da8161077d565b6107e48184610788565b92506107ef82610793565b8060005b8381101561082057815161080787826107ac565b9650610812836107c4565b9250506001810190506107f3565b505050505050565b60006102008201905061083e60008301846107d1565b92915050565b600061084f826106eb565b9050919050565b61085f81610844565b82525050565b600060208201905061087a6000830184610856565b92915050565b600082825260208201905092915050565b7f4e6f206572657320656c2061646d696e00000000000000000000000000000000600082015250565b60006108c7601083610880565b91506108d282610891565b602082019050919050565b600060208201905081810360008301526108f6816108ba565b9050919050565b7f496e737566696369656e7420616d6f756e74206f6620424e4200000000000000600082015250565b6000610933601983610880565b915061093e826108fd565b602082019050919050565b6000602082019050818103600083015261096281610926565b9050919050565b7f4e487b7100000000000000000000000000000000000000000000000000000000600052601160045260246000fd5b60006109a382610659565b91506109ae83610659565b92508282019050808211156109c6576109c5610969565b5b92915050565b7f4e487b7100000000000000000000000000000000000000000000000000000000600052603260045260246000fd5b7f4e6f2074686973207469636b65742069732066726f6d206f746865722070657260008201527f736f6e0000000000000000000000000000000000000000000000000000000000602082015250565b6000610a57602383610880565b9150610a62826109fb565b604082019050919050565b60006020820190508181036000830152610a8681610a4a565b905091905056fea2646970667358221220c21b16f07852c3ab671034ff0d9cbd24ee339a894f9ad91df693069623426ee364736f6c63430008110033",
  "immutableReferences": {},
  "source": "pragma solidity ^0.8.0;\r\n\r\ncontract MyContract {\r\n    address[16] public tikets;\r\n    uint public balanceWei = 0;\r\n    address payable public admin  = payable(0xc8D55b1AEe0AF99A99A83Cab4b80fE54032b75c2);\r\n\r\n\r\n    function transferBalanceToAdmin () public {\r\n        require(msg.sender == admin, \"No eres el admin\");\r\n        \r\n        admin.transfer(balanceWei);\r\n        balanceWei = 0;\r\n    }\r\n\r\n    function buyTiket(uint tiketIndex) payable public returns (bool) {\r\n        // Comprobacin\r\n        require(tiketIndex >= 0 && tiketIndex <= 15);\r\n        require(msg.value == 0.02 ether, \"Insuficient amount of BNB\");\r\n        balanceWei += msg.value;\r\n\r\n\r\n        bool sucess = true;\r\n        \r\n        if ( tikets[tiketIndex] == address(0) ){\r\n            // msg.sender address del usuario que invoco al contrato\r\n            tikets[tiketIndex] = msg.sender;\r\n        } else {\r\n            sucess = false ;\r\n        }\r\n\r\n        return sucess;\r\n    }\r\n\r\n    function isTicketAvailable (uint tiketIndex) public view returns (bool) {\r\n        // Comprobacin\r\n        require(tikets[tiketIndex] == address(0), \"No this ticket is from other person\");\r\n\r\n        return true;\r\n        \r\n    }\r\n       \r\n    function getTikets() public view returns (address[16] memory) {\r\n        return tikets;\r\n    }\r\n\r\n    function getBalance() public view returns (uint256) {\r\n        return payable(address(this)).balance;\r\n    }\r\n\r\n    function getBalanceWei() public view returns (uint) {\r\n        return balanceWei;\r\n    }\r\n\r\n}\r\n\r\n",
  "sourcePath": "D:\\Master\\Segundo\\NEW\\Blockchain\\bnb1\\contracts\\MyContract.sol",
  "compiler": {
    "name": "solc",
    "version": "0.8.17+commit.8df45f5f.Emscripten.clang"
  },
  "schemaVersion": "3.4.16",
  "updatedAt": "2023-12-14T15:29:58.798Z",
  "networkType": "ethereum",
  "devdoc": {
    "kind": "dev",
    "methods": {},
    "version": 1
  },
  "userdoc": {
    "kind": "user",
    "methods": {},
    "version": 1
  }
}