{
  "contractName": "MyContract",
  "abi": [
    {
      "inputs": [],
      "name": "admin",
      "outputs": [
        {
          "internalType": "address payable",
          "name": "",
          "type": "address"
        }
      ],
      "stateMutability": "view",
      "type": "function",
      "constant": true
    },
    {
      "inputs": [],
      "name": "balanceWei",
      "outputs": [
        {
          "internalType": "uint256",
          "name": "",
          "type": "uint256"
        }
      ],
      "stateMutability": "view",
      "type": "function",
      "constant": true
    },
    {
      "inputs": [
        {
          "internalType": "uint256",
          "name": "",
          "type": "uint256"
        }
      ],
      "name": "tikets",
      "outputs": [
        {
          "internalType": "address",
          "name": "",
          "type": "address"
        }
      ],
      "stateMutability": "view",
      "type": "function",
      "constant": true
    },
    {
      "inputs": [],
      "name": "transferBalanceToAdmin",
      "outputs": [],
      "stateMutability": "nonpayable",
      "type": "function"
    },
    {
      "inputs": [
        {
          "internalType": "uint256",
          "name": "tiketIndex",
          "type": "uint256"
        }
      ],
      "name": "buyTiket",
      "outputs": [
        {
          "internalType": "bool",
          "name": "",
          "type": "bool"
        }
      ],
      "stateMutability": "payable",
      "type": "function",
      "payable": true
    },
    {
      "inputs": [
        {
          "internalType": "uint256",
          "name": "tiketIndex",
          "type": "uint256"
        }
      ],
      "name": "isTicketAvailable",
      "outputs": [
        {
          "internalType": "bool",
          "name": "",
          "type": "bool"
        }
      ],
      "stateMutability": "view",
      "type": "function",
      "constant": true
    },
    {
      "inputs": [
        {
          "internalType": "address",
          "name": "adminAddress",
          "type": "address"
        }
      ],
      "name": "setAdmin",
      "outputs": [],
      "stateMutability": "nonpayable",
      "type": "function"
    },
    {
      "inputs": [
        {
          "internalType": "uint256",
          "name": "tiketIndex",
          "type": "uint256"
        },
        {
          "internalType": "address",
          "name": "toAddress",
          "type": "address"
        }
      ],
      "name": "transferTicket",
      "outputs": [],
      "stateMutability": "nonpayable",
      "type": "function"
    },
    {
      "inputs": [],
      "name": "getTikets",
      "outputs": [
        {
          "internalType": "address[16]",
          "name": "",
          "type": "address[16]"
        }
      ],
      "stateMutability": "view",
      "type": "function",
      "constant": true
    },
    {
      "inputs": [],
      "name": "getBalance",
      "outputs": [
        {
          "internalType": "uint256",
          "name": "",
          "type": "uint256"
        }
      ],
      "stateMutability": "view",
      "type": "function",
      "constant": true
    },
    {
      "inputs": [],
      "name": "getBalanceWei",
      "outputs": [
        {
          "internalType": "uint256",
          "name": "",
          "type": "uint256"
        }
      ],
      "stateMutability": "view",
      "type": "function",
      "constant": true
    }
  ],
  "bytecode": "0x6080604052600060105573c8d55b1aee0af99a99a83cab4b80fe54032b75c2601160006101000a81548173ffffffffffffffffffffffffffffffffffffffff021916908373ffffffffffffffffffffffffffffffffffffffff16021790555034801561006a57600080fd5b50610ffc8061007a6000396000f3fe60806040526004361061009c5760003560e01c80638aeeae49116100645780638aeeae49146101725780638f627444146101a2578063be4fb14d146101cd578063e8eedc08146101f8578063f520047a14610235578063f851a440146102605761009c565b806312065fe0146100a15780634d63e206146100cc57806352ba15e614610109578063679ebf1a14610120578063704b6c0214610149575b600080fd5b3480156100ad57600080fd5b506100b661028b565b6040516100c39190610962565b60405180910390f35b3480156100d857600080fd5b506100f360048036038101906100ee91906109ae565b6102aa565b6040516101009190610a1c565b60405180910390f35b34801561011557600080fd5b5061011e6102e0565b005b34801561012c57600080fd5b5061014760048036038101906101429190610a63565b6103e5565b005b34801561015557600080fd5b50610170600480360381019061016b9190610aa3565b610531565b005b61018c600480360381019061018791906109ae565b610605565b6040516101999190610aeb565b60405180910390f35b3480156101ae57600080fd5b506101b76107c1565b6040516101c49190610bb1565b60405180910390f35b3480156101d957600080fd5b506101e2610842565b6040516101ef9190610962565b60405180910390f35b34801561020457600080fd5b5061021f600480360381019061021a91906109ae565b610848565b60405161022c9190610aeb565b60405180910390f35b34801561024157600080fd5b5061024a6108f6565b6040516102579190610962565b60405180910390f35b34801561026c57600080fd5b50610275610900565b6040516102829190610bee565b60405180910390f35b60003073ffffffffffffffffffffffffffffffffffffffff1631905090565b600081601081106102ba57600080fd5b016000915054906101000a900473ffffffffffffffffffffffffffffffffffffffff1681565b601160009054906101000a900473ffffffffffffffffffffffffffffffffffffffff1673ffffffffffffffffffffffffffffffffffffffff163373ffffffffffffffffffffffffffffffffffffffff1614610370576040517f08c379a000000000000000000000000000000000000000000000000000000000815260040161036790610c66565b60405180910390fd5b601160009054906101000a900473ffffffffffffffffffffffffffffffffffffffff1673ffffffffffffffffffffffffffffffffffffffff166108fc6010549081150290604051600060405180830381858888f193505050501580156103da573d6000803e3d6000fd5b506000601081905550565b600082101580156103f75750600f8211155b610436576040517f08c379a000000000000000000000000000000000000000000000000000000000815260040161042d90610cd2565b60405180910390fd5b6000826010811061044a57610449610cf2565b5b0160009054906101000a900473ffffffffffffffffffffffffffffffffffffffff1673ffffffffffffffffffffffffffffffffffffffff163373ffffffffffffffffffffffffffffffffffffffff16146104d9576040517f08c379a00000000000000000000000000000000000000000000000000000000081526004016104d090610d6d565b60405180910390fd5b80600083601081106104ee576104ed610cf2565b5b0160006101000a81548173ffffffffffffffffffffffffffffffffffffffff021916908373ffffffffffffffffffffffffffffffffffffffff1602179055505050565b601160009054906101000a900473ffffffffffffffffffffffffffffffffffffffff1673ffffffffffffffffffffffffffffffffffffffff163373ffffffffffffffffffffffffffffffffffffffff16146105c1576040517f08c379a00000000000000000000000000000000000000000000000000000000081526004016105b890610dd9565b60405180910390fd5b80601160006101000a81548173ffffffffffffffffffffffffffffffffffffffff021916908373ffffffffffffffffffffffffffffffffffffffff16021790555050565b60008082101580156106185750600f8211155b610657576040517f08c379a000000000000000000000000000000000000000000000000000000000815260040161064e90610cd2565b60405180910390fd5b662386f26fc100003410156106a1576040517f08c379a000000000000000000000000000000000000000000000000000000000815260040161069890610e45565b60405180910390fd5b600073ffffffffffffffffffffffffffffffffffffffff16600083601081106106cd576106cc610cf2565b5b0160009054906101000a900473ffffffffffffffffffffffffffffffffffffffff1673ffffffffffffffffffffffffffffffffffffffff1614610745576040517f08c379a000000000000000000000000000000000000000000000000000000000815260040161073c90610eb1565b60405180910390fd5b34601060008282546107579190610f00565b92505081905550600060019050336000846010811061077957610778610cf2565b5b0160006101000a81548173ffffffffffffffffffffffffffffffffffffffff021916908373ffffffffffffffffffffffffffffffffffffffff16021790555080915050919050565b6107c9610926565b6000601080602002604051908101604052809291908260108015610838576020028201915b8160009054906101000a900473ffffffffffffffffffffffffffffffffffffffff1673ffffffffffffffffffffffffffffffffffffffff16815260200190600101908083116107ee575b5050505050905090565b60105481565b60008073ffffffffffffffffffffffffffffffffffffffff166000836010811061087557610874610cf2565b5b0160009054906101000a900473ffffffffffffffffffffffffffffffffffffffff1673ffffffffffffffffffffffffffffffffffffffff16146108ed576040517f08c379a00000000000000000000000000000000000000000000000000000000081526004016108e490610fa6565b60405180910390fd5b60019050919050565b6000601054905090565b601160009054906101000a900473ffffffffffffffffffffffffffffffffffffffff1681565b604051806102000160405280601090602082028036833780820191505090505090565b6000819050919050565b61095c81610949565b82525050565b60006020820190506109776000830184610953565b92915050565b600080fd5b61098b81610949565b811461099657600080fd5b50565b6000813590506109a881610982565b92915050565b6000602082840312156109c4576109c361097d565b5b60006109d284828501610999565b91505092915050565b600073ffffffffffffffffffffffffffffffffffffffff82169050919050565b6000610a06826109db565b9050919050565b610a16816109fb565b82525050565b6000602082019050610a316000830184610a0d565b92915050565b610a40816109fb565b8114610a4b57600080fd5b50565b600081359050610a5d81610a37565b92915050565b60008060408385031215610a7a57610a7961097d565b5b6000610a8885828601610999565b9250506020610a9985828601610a4e565b9150509250929050565b600060208284031215610ab957610ab861097d565b5b6000610ac784828501610a4e565b91505092915050565b60008115159050919050565b610ae581610ad0565b82525050565b6000602082019050610b006000830184610adc565b92915050565b600060109050919050565b600081905092915050565b6000819050919050565b610b2f816109fb565b82525050565b6000610b418383610b26565b60208301905092915050565b6000602082019050919050565b610b6381610b06565b610b6d8184610b11565b9250610b7882610b1c565b8060005b83811015610ba9578151610b908782610b35565b9650610b9b83610b4d565b925050600181019050610b7c565b505050505050565b600061020082019050610bc76000830184610b5a565b92915050565b6000610bd8826109db565b9050919050565b610be881610bcd565b82525050565b6000602082019050610c036000830184610bdf565b92915050565b600082825260208201905092915050565b7f596f7520617265206e6f74207468652061646d696e0000000000000000000000600082015250565b6000610c50601583610c09565b9150610c5b82610c1a565b602082019050919050565b60006020820190508181036000830152610c7f81610c43565b9050919050565b7f54686973207469636b657420646f6573206e6f74206578697374000000000000600082015250565b6000610cbc601a83610c09565b9150610cc782610c86565b602082019050919050565b60006020820190508181036000830152610ceb81610caf565b9050919050565b7f4e487b7100000000000000000000000000000000000000000000000000000000600052603260045260246000fd5b7f596f7520617265206e6f7420746865207469636b6574206f776e657200000000600082015250565b6000610d57601c83610c09565b9150610d6282610d21565b602082019050919050565b60006020820190508181036000830152610d8681610d4a565b9050919050565b7f596f7520617265206e6f742068652061646d696e000000000000000000000000600082015250565b6000610dc3601483610c09565b9150610dce82610d8d565b602082019050919050565b60006020820190508181036000830152610df281610db6565b9050919050565b7f496e737566696369656e7420616d6f756e74206f6620424e4200000000000000600082015250565b6000610e2f601983610c09565b9150610e3a82610df9565b602082019050919050565b60006020820190508181036000830152610e5e81610e22565b9050919050565b7f54686973207469636b65742069732066726f6d206f7468657220706572736f6e600082015250565b6000610e9b602083610c09565b9150610ea682610e65565b602082019050919050565b60006020820190508181036000830152610eca81610e8e565b9050919050565b7f4e487b7100000000000000000000000000000000000000000000000000000000600052601160045260246000fd5b6000610f0b82610949565b9150610f1683610949565b9250828201905080821115610f2e57610f2d610ed1565b5b92915050565b7f4e6f2c2074686973207469636b65742069732066726f6d206f7468657220706560008201527f72736f6e00000000000000000000000000000000000000000000000000000000602082015250565b6000610f90602483610c09565b9150610f9b82610f34565b604082019050919050565b60006020820190508181036000830152610fbf81610f83565b905091905056fea26469706673582212203c418ecfdaec11f3e198598415c557acc70758081a8616d42df1e5ac3f7c313964736f6c63430008110033",
  "immutableReferences": {},
  "source": "pragma solidity ^0.8.0;\r\n\r\ncontract MyContract {\r\n    address[16] public tikets;\r\n    uint public balanceWei = 0;\r\n    address payable public admin  = payable(0xc8D55b1AEe0AF99A99A83Cab4b80fE54032b75c2);\r\n\r\n\r\n    function transferBalanceToAdmin () public {\r\n        require(msg.sender == admin, \"You are not the admin\");\r\n        \r\n        admin.transfer(balanceWei);\r\n        balanceWei = 0;\r\n    }\r\n\r\n    function buyTiket(uint tiketIndex) payable public returns (bool) {\r\n        // Comprobacin\r\n        require(tiketIndex >= 0 && tiketIndex <= 15, \"This ticket does not exist\");\r\n        require(msg.value >= 0.01 ether, \"Insuficient amount of BNB\");\r\n        require(tikets[tiketIndex] == address(0), \"This ticket is from other person\");\r\n        balanceWei += msg.value;\r\n\r\n\r\n        bool sucess = true;\r\n        tikets[tiketIndex] = msg.sender;\r\n\r\n        return sucess;\r\n    }\r\n\r\n    function isTicketAvailable (uint tiketIndex) public view returns (bool) {\r\n        // Comprobacin\r\n        require(tikets[tiketIndex] == address(0), \"No, this ticket is from other person\");\r\n\r\n        return true;\r\n        \r\n    }\r\n\r\n    function setAdmin (address adminAddress) public {\r\n        // Comprobacin\r\n        require(msg.sender == admin, \"You are not he admin\");\r\n\r\n        admin = payable(adminAddress);\r\n    }\r\n\r\n    function transferTicket (uint tiketIndex, address toAddress) public {\r\n        require(tiketIndex >= 0 && tiketIndex <= 15, \"This ticket does not exist\");\r\n        require(msg.sender == tikets[tiketIndex], \"You are not the ticket owner\");\r\n        \r\n        tikets[tiketIndex] = toAddress;\r\n    }\r\n       \r\n    function getTikets() public view returns (address[16] memory) {\r\n        return tikets;\r\n    }\r\n\r\n    function getBalance() public view returns (uint256) {\r\n        return payable(address(this)).balance;\r\n    }\r\n\r\n    function getBalanceWei() public view returns (uint) {\r\n        return balanceWei;\r\n    }\r\n\r\n}\r\n\r\n",
  "sourcePath": "D:\\Master\\Segundo\\NEW\\Blockchain\\bnb1\\contracts\\MyContract.sol",
  "compiler": {
    "name": "solc",
    "version": "0.8.17+commit.8df45f5f.Emscripten.clang"
  },
  "schemaVersion": "3.4.16",
  "updatedAt": "2023-12-16T12:09:36.599Z",
  "networkType": "ethereum",
  "devdoc": {
    "kind": "dev",
    "methods": {},
    "version": 1
  },
  "userdoc": {
    "kind": "user",
    "methods": {},
    "version": 1
  }
}