{
  "contractName": "RealStateContract",
  "abi": [
    {
      "inputs": [
        {
          "internalType": "uint256",
          "name": "",
          "type": "uint256"
        }
      ],
      "name": "realStateArray",
      "outputs": [
        {
          "internalType": "string",
          "name": "city",
          "type": "string"
        },
        {
          "internalType": "string",
          "name": "street",
          "type": "string"
        },
        {
          "internalType": "uint256",
          "name": "number",
          "type": "uint256"
        },
        {
          "internalType": "uint256",
          "name": "meters",
          "type": "uint256"
        },
        {
          "internalType": "uint256",
          "name": "registration",
          "type": "uint256"
        },
        {
          "internalType": "string",
          "name": "owner",
          "type": "string"
        },
        {
          "internalType": "uint256",
          "name": "price",
          "type": "uint256"
        }
      ],
      "stateMutability": "view",
      "type": "function",
      "constant": true
    },
    {
      "inputs": [
        {
          "internalType": "string",
          "name": "_city",
          "type": "string"
        },
        {
          "internalType": "string",
          "name": "_street",
          "type": "string"
        },
        {
          "internalType": "uint256",
          "name": "_number",
          "type": "uint256"
        },
        {
          "internalType": "uint256",
          "name": "_meters",
          "type": "uint256"
        },
        {
          "internalType": "uint256",
          "name": "_registration",
          "type": "uint256"
        },
        {
          "internalType": "string",
          "name": "_owner",
          "type": "string"
        },
        {
          "internalType": "uint256",
          "name": "_price",
          "type": "uint256"
        }
      ],
      "name": "addRealState",
      "outputs": [],
      "stateMutability": "nonpayable",
      "type": "function"
    },
    {
      "inputs": [
        {
          "internalType": "uint256",
          "name": "_registration",
          "type": "uint256"
        }
      ],
      "name": "getRealStateByRegistration",
      "outputs": [
        {
          "components": [
            {
              "internalType": "string",
              "name": "city",
              "type": "string"
            },
            {
              "internalType": "string",
              "name": "street",
              "type": "string"
            },
            {
              "internalType": "uint256",
              "name": "number",
              "type": "uint256"
            },
            {
              "internalType": "uint256",
              "name": "meters",
              "type": "uint256"
            },
            {
              "internalType": "uint256",
              "name": "registration",
              "type": "uint256"
            },
            {
              "internalType": "string",
              "name": "owner",
              "type": "string"
            },
            {
              "internalType": "uint256",
              "name": "price",
              "type": "uint256"
            }
          ],
          "internalType": "struct RealStateContract.RealState",
          "name": "",
          "type": "tuple"
        }
      ],
      "stateMutability": "view",
      "type": "function",
      "constant": true
    },
    {
      "inputs": [
        {
          "internalType": "uint256",
          "name": "_registration",
          "type": "uint256"
        }
      ],
      "name": "deleteRealStateByRegistration",
      "outputs": [],
      "stateMutability": "nonpayable",
      "type": "function"
    },
    {
      "inputs": [
        {
          "internalType": "string",
          "name": "_city",
          "type": "string"
        }
      ],
      "name": "getRealStateByCity",
      "outputs": [
        {
          "components": [
            {
              "internalType": "string",
              "name": "city",
              "type": "string"
            },
            {
              "internalType": "string",
              "name": "street",
              "type": "string"
            },
            {
              "internalType": "uint256",
              "name": "number",
              "type": "uint256"
            },
            {
              "internalType": "uint256",
              "name": "meters",
              "type": "uint256"
            },
            {
              "internalType": "uint256",
              "name": "registration",
              "type": "uint256"
            },
            {
              "internalType": "string",
              "name": "owner",
              "type": "string"
            },
            {
              "internalType": "uint256",
              "name": "price",
              "type": "uint256"
            }
          ],
          "internalType": "struct RealStateContract.RealState[]",
          "name": "",
          "type": "tuple[]"
        }
      ],
      "stateMutability": "view",
      "type": "function",
      "constant": true
    }
  ],
  "bytecode": "0x608060405234801561001057600080fd5b506118e0806100206000396000f3fe608060405234801561001057600080fd5b50600436106100575760003560e01c80630de062371461005c57806338de5f771461008c57806382e27eab146100a85780638324aa5b146100d857806393945aae146100f4575b600080fd5b61007660048036038101906100719190610f93565b61012a565b60405161008391906111fe565b60405180910390f35b6100a660048036038101906100a1919061124c565b6104d1565b005b6100c260048036038101906100bd919061134f565b610688565b6040516100cf9190611426565b60405180910390f35b6100f260048036038101906100ed919061134f565b610934565b005b61010e6004803603810190610109919061134f565b610b8d565b60405161012197969594939291906114a1565b60405180910390f35b60606000805b6000805490508110156101b757848460405161014d929190611564565b6040518091039020600082815481106101695761016861157d565b5b906000526020600020906007020160000160405161018791906116a1565b604051809103902014156101a45781806101a0906116e7565b9250505b80806101af906116e7565b915050610130565b5060008167ffffffffffffffff8111156101d4576101d3611730565b5b60405190808252806020026020018201604052801561020d57816020015b6101fa610d77565b8152602001906001900390816101f25790505b5090506000805b6000805490508110156104c4578686604051610231929190611564565b60405180910390206000828154811061024d5761024c61157d565b5b906000526020600020906007020160000160405161026b91906116a1565b604051809103902014156104b1576000818154811061028d5761028c61157d565b5b90600052602060002090600702016040518060e00160405290816000820180546102b6906115db565b80601f01602080910402602001604051908101604052809291908181526020018280546102e2906115db565b801561032f5780601f106103045761010080835404028352916020019161032f565b820191906000526020600020905b81548152906001019060200180831161031257829003601f168201915b50505050508152602001600182018054610348906115db565b80601f0160208091040260200160405190810160405280929190818152602001828054610374906115db565b80156103c15780601f10610396576101008083540402835291602001916103c1565b820191906000526020600020905b8154815290600101906020018083116103a457829003601f168201915b505050505081526020016002820154815260200160038201548152602001600482015481526020016005820180546103f8906115db565b80601f0160208091040260200160405190810160405280929190818152602001828054610424906115db565b80156104715780601f1061044657610100808354040283529160200191610471565b820191906000526020600020905b81548152906001019060200180831161045457829003601f168201915b505050505081526020016006820154815250508383815181106104975761049661157d565b5b602002602001018190525081806104ad906116e7565b9250505b80806104bc906116e7565b915050610214565b5081935050505092915050565b60006040518060e001604052808c8c8080601f016020809104026020016040519081016040528093929190818152602001838380828437600081840152601f19601f8201169050808301925050505050505081526020018a8a8080601f016020809104026020016040519081016040528093929190818152602001838380828437600081840152601f19601f82011690508083019250505050505050815260200188815260200187815260200186815260200185858080601f016020809104026020016040519081016040528093929190818152602001838380828437600081840152601f19601f8201169050808301925050505050505081526020018381525090806001815401808255809150506001900390600052602060002090600702016000909190919091506000820151816000019080519060200190610617929190610db4565b506020820151816001019080519060200190610634929190610db4565b5060408201518160020155606082015181600301556080820151816004015560a082015181600501908051906020019061066f929190610db4565b5060c08201518160060155505050505050505050505050565b610690610d77565b60005b6000805490508110156108f35782600082815481106106b5576106b461157d565b5b90600052602060002090600702016004015414156108e057600081815481106106e1576106e061157d565b5b90600052602060002090600702016040518060e001604052908160008201805461070a906115db565b80601f0160208091040260200160405190810160405280929190818152602001828054610736906115db565b80156107835780601f1061075857610100808354040283529160200191610783565b820191906000526020600020905b81548152906001019060200180831161076657829003601f168201915b5050505050815260200160018201805461079c906115db565b80601f01602080910402602001604051908101604052809291908181526020018280546107c8906115db565b80156108155780601f106107ea57610100808354040283529160200191610815565b820191906000526020600020905b8154815290600101906020018083116107f857829003601f168201915b5050505050815260200160028201548152602001600382015481526020016004820154815260200160058201805461084c906115db565b80601f0160208091040260200160405190810160405280929190818152602001828054610878906115db565b80156108c55780601f1061089a576101008083540402835291602001916108c5565b820191906000526020600020905b8154815290600101906020018083116108a857829003601f168201915b5050505050815260200160068201548152505091505061092f565b80806108eb906116e7565b915050610693565b506040517f08c379a0000000000000000000000000000000000000000000000000000000008152600401610926906117d1565b60405180910390fd5b919050565b60005b600080549050811015610b885781600082815481106109595761095861157d565b5b9060005260206000209060070201600401541415610b7557600081815481106109855761098461157d565b5b9060005260206000209060070201600080820160006109a49190610e3a565b6001820160006109b49190610e3a565b6002820160009055600382016000905560048201600090556005820160006109dc9190610e3a565b6006820160009055505060008190505b60016000805490506109fe91906117f1565b811015610af3576000600182610a149190611825565b81548110610a2557610a2461157d565b5b906000526020600020906007020160008281548110610a4757610a4661157d565b5b90600052602060002090600702016000820181600001908054610a69906115db565b610a74929190610e7a565b506001820181600101908054610a89906115db565b610a94929190610e7a565b506002820154816002015560038201548160030155600482015481600401556005820181600501908054610ac7906115db565b610ad2929190610e7a565b50600682015481600601559050508080610aeb906116e7565b9150506109ec565b506000805480610b0657610b0561187b565b5b600190038181906000526020600020906007020160008082016000610b2b9190610e3a565b600182016000610b3b9190610e3a565b600282016000905560038201600090556004820160009055600582016000610b639190610e3a565b60068201600090555050905550610b8a565b8080610b80906116e7565b915050610937565b505b50565b60008181548110610b9d57600080fd5b9060005260206000209060070201600091509050806000018054610bc0906115db565b80601f0160208091040260200160405190810160405280929190818152602001828054610bec906115db565b8015610c395780601f10610c0e57610100808354040283529160200191610c39565b820191906000526020600020905b815481529060010190602001808311610c1c57829003601f168201915b505050505090806001018054610c4e906115db565b80601f0160208091040260200160405190810160405280929190818152602001828054610c7a906115db565b8015610cc75780601f10610c9c57610100808354040283529160200191610cc7565b820191906000526020600020905b815481529060010190602001808311610caa57829003601f168201915b505050505090806002015490806003015490806004015490806005018054610cee906115db565b80601f0160208091040260200160405190810160405280929190818152602001828054610d1a906115db565b8015610d675780601f10610d3c57610100808354040283529160200191610d67565b820191906000526020600020905b815481529060010190602001808311610d4a57829003601f168201915b5050505050908060060154905087565b6040518060e00160405280606081526020016060815260200160008152602001600081526020016000815260200160608152602001600081525090565b828054610dc0906115db565b90600052602060002090601f016020900481019282610de25760008555610e29565b82601f10610dfb57805160ff1916838001178555610e29565b82800160010185558215610e29579182015b82811115610e28578251825591602001919060010190610e0d565b5b509050610e369190610f07565b5090565b508054610e46906115db565b6000825580601f10610e585750610e77565b601f016020900490600052602060002090810190610e769190610f07565b5b50565b828054610e86906115db565b90600052602060002090601f016020900481019282610ea85760008555610ef6565b82601f10610eb95780548555610ef6565b82800160010185558215610ef657600052602060002091601f016020900482015b82811115610ef5578254825591600101919060010190610eda565b5b509050610f039190610f07565b5090565b5b80821115610f20576000816000905550600101610f08565b5090565b600080fd5b600080fd5b600080fd5b600080fd5b600080fd5b60008083601f840112610f5357610f52610f2e565b5b8235905067ffffffffffffffff811115610f7057610f6f610f33565b5b602083019150836001820283011115610f8c57610f8b610f38565b5b9250929050565b60008060208385031215610faa57610fa9610f24565b5b600083013567ffffffffffffffff811115610fc857610fc7610f29565b5b610fd485828601610f3d565b92509250509250929050565b600081519050919050565b600082825260208201905092915050565b6000819050602082019050919050565b600081519050919050565b600082825260208201905092915050565b60005b8381101561104657808201518184015260208101905061102b565b83811115611055576000848401525b50505050565b6000601f19601f8301169050919050565b60006110778261100c565b6110818185611017565b9350611091818560208601611028565b61109a8161105b565b840191505092915050565b6000819050919050565b6110b8816110a5565b82525050565b600060e08301600083015184820360008601526110db828261106c565b915050602083015184820360208601526110f5828261106c565b915050604083015161110a60408601826110af565b50606083015161111d60608601826110af565b50608083015161113060808601826110af565b5060a083015184820360a0860152611148828261106c565b91505060c083015161115d60c08601826110af565b508091505092915050565b600061117483836110be565b905092915050565b6000602082019050919050565b600061119482610fe0565b61119e8185610feb565b9350836020820285016111b085610ffc565b8060005b858110156111ec57848403895281516111cd8582611168565b94506111d88361117c565b925060208a019950506001810190506111b4565b50829750879550505050505092915050565b600060208201905081810360008301526112188184611189565b905092915050565b611229816110a5565b811461123457600080fd5b50565b60008135905061124681611220565b92915050565b60008060008060008060008060008060e08b8d03121561126f5761126e610f24565b5b60008b013567ffffffffffffffff81111561128d5761128c610f29565b5b6112998d828e01610f3d565b9a509a505060208b013567ffffffffffffffff8111156112bc576112bb610f29565b5b6112c88d828e01610f3d565b985098505060406112db8d828e01611237565b96505060606112ec8d828e01611237565b95505060806112fd8d828e01611237565b94505060a08b013567ffffffffffffffff81111561131e5761131d610f29565b5b61132a8d828e01610f3d565b935093505060c061133d8d828e01611237565b9150509295989b9194979a5092959850565b60006020828403121561136557611364610f24565b5b600061137384828501611237565b91505092915050565b600060e0830160008301518482036000860152611399828261106c565b915050602083015184820360208601526113b3828261106c565b91505060408301516113c860408601826110af565b5060608301516113db60608601826110af565b5060808301516113ee60808601826110af565b5060a083015184820360a0860152611406828261106c565b91505060c083015161141b60c08601826110af565b508091505092915050565b60006020820190508181036000830152611440818461137c565b905092915050565b600082825260208201905092915050565b60006114648261100c565b61146e8185611448565b935061147e818560208601611028565b6114878161105b565b840191505092915050565b61149b816110a5565b82525050565b600060e08201905081810360008301526114bb818a611459565b905081810360208301526114cf8189611459565b90506114de6040830188611492565b6114eb6060830187611492565b6114f86080830186611492565b81810360a083015261150a8185611459565b905061151960c0830184611492565b98975050505050505050565b600081905092915050565b82818337600083830152505050565b600061154b8385611525565b9350611558838584611530565b82840190509392505050565b600061157182848661153f565b91508190509392505050565b7f4e487b7100000000000000000000000000000000000000000000000000000000600052603260045260246000fd5b7f4e487b7100000000000000000000000000000000000000000000000000000000600052602260045260246000fd5b600060028204905060018216806115f357607f821691505b60208210811415611607576116066115ac565b5b50919050565b60008190508160005260206000209050919050565b6000815461162f816115db565b6116398186611525565b94506001821660008114611654576001811461166557611698565b60ff19831686528186019350611698565b61166e8561160d565b60005b8381101561169057815481890152600182019150602081019050611671565b838801955050505b50505092915050565b60006116ad8284611622565b915081905092915050565b7f4e487b7100000000000000000000000000000000000000000000000000000000600052601160045260246000fd5b60006116f2826110a5565b91507fffffffffffffffffffffffffffffffffffffffffffffffffffffffffffffffff821415611725576117246116b8565b5b600182019050919050565b7f4e487b7100000000000000000000000000000000000000000000000000000000600052604160045260246000fd5b7f4e6f7420666f756e64205265616c53746174652077697468207468697320726560008201527f67697374726174696f6e00000000000000000000000000000000000000000000602082015250565b60006117bb602a83611448565b91506117c68261175f565b604082019050919050565b600060208201905081810360008301526117ea816117ae565b9050919050565b60006117fc826110a5565b9150611807836110a5565b92508282101561181a576118196116b8565b5b828203905092915050565b6000611830826110a5565b915061183b836110a5565b9250827fffffffffffffffffffffffffffffffffffffffffffffffffffffffffffffffff038211156118705761186f6116b8565b5b828201905092915050565b7f4e487b7100000000000000000000000000000000000000000000000000000000600052603160045260246000fdfea2646970667358221220693ee1a15ce0d04acfb026a1722d79389ba66ba3d213485bb5cd0cbac766ce0264736f6c634300080a0033",
  "immutableReferences": {},
  "source": "pragma solidity ^0.8.10;\r\n\r\nlibrary Shared {\r\n    struct RealState {\r\n        string city;\r\n        string street;\r\n        uint number;\r\n        uint meters;\r\n        uint registration;\r\n        string owner;\r\n        uint price;\r\n    }\r\n}\r\n\r\ncontract RealStateContractCities {\r\n    mapping( string => Shared.RealState[]) public realStateMap;\r\n    address addressAdmin  = address(0x50d3b84a2b1787b7704DD50c67733b6b5B293629);\r\n    mapping(address => bool) public authorizedAddresses;\r\n\r\n    function getRealStateByCity (string calldata _city) public view returns(Shared.RealState[] memory) {\r\n\r\n        if (msg.sender == addressAdmin || authorizedAddresses[msg.sender] == true) {\r\n            return realStateMap[_city];\r\n        }\r\n\r\n        Shared.RealState[] memory privatePricedRealState = new Shared.RealState[](realStateMap[_city].length);\r\n\r\n        for (uint256 i = 0; i < realStateMap[_city].length; i++) {\r\n            privatePricedRealState[i] = realStateMap[_city][i];\r\n            privatePricedRealState[i].price = 0;\r\n        }\r\n\r\n        return privatePricedRealState;\r\n    }\r\n\r\n    function addRealState (Shared.RealState calldata realState) public {\r\n        require(msg.sender == addressAdmin || authorizedAddresses[msg.sender] == true, \"You do not have permissions to add a real state\");\r\n        realStateMap[realState.city].push(realState);\r\n    }\r\n\r\n    function authorizeAddress(address toAuthorize) public {\r\n        require(msg.sender == addressAdmin, \"Only the admin can authorize addresses\");\r\n        authorizedAddresses[toAuthorize] = true;\r\n    }\r\n\r\n    function deleteRealStateByRegistration(string calldata _city, uint _registration) public {\r\n\r\n        for(uint i =0; i < realStateMap[_city].length; i++){\r\n            if (realStateMap[_city][i].registration == _registration){\r\n                delete realStateMap[_city][i];\r\n\r\n                for(uint j =i; j < realStateMap[_city].length-1; j++){\r\n                    realStateMap[_city][j] = realStateMap[_city][j+1];\r\n                }\r\n\r\n                realStateMap[_city].pop(); // delete the last\r\n                // Important to reduce -1 the leght of array\r\n\r\n                return; // for finish method\r\n            }\r\n        }\r\n    }\r\n}\r\n\r\ncontract RealStateContract{\r\n    \r\n    struct RealState {\r\n        string city;\r\n        string street;\r\n        uint number;\r\n        uint meters;\r\n        uint registration;\r\n        string owner;\r\n        uint price;\r\n    }\r\n\r\n    RealState[] public realStateArray;\r\n\r\n    function addRealState(string calldata _city, string calldata _street, \r\n            uint _number, uint _meters, uint _registration, string calldata _owner, uint _price) public {\r\n        \r\n        realStateArray.push(RealState(_city,_street,_number,_meters,_registration,_owner,_price));\r\n    }\r\n\r\n    function getRealStateByRegistration (uint _registration) public view returns(RealState memory) {\r\n        for(uint i =0; i < realStateArray.length; i++){\r\n            if (realStateArray[i].registration == _registration){\r\n                return realStateArray[i];\r\n            }\r\n        }\r\n        revert(\"Not found RealState with this registration\");\r\n    }\r\n\r\n    function deleteRealStateByRegistration(uint _registration) public {\r\n        for(uint i =0; i < realStateArray.length; i++){\r\n            if (realStateArray[i].registration == _registration){\r\n                delete realStateArray[i];\r\n\r\n                for(uint j =i; j < realStateArray.length-1; j++){\r\n                    realStateArray[j] = realStateArray[j+1];\r\n                }\r\n\r\n                realStateArray.pop(); // delete the last\r\n                // Important to reduce -1 the leght of array\r\n\r\n                return; // for finish method\r\n            }\r\n        }\r\n    }\r\n\r\n    function getRealStateByCity (string calldata _city) public view returns(RealState[] memory) {\r\n        uint resultLength = 0;\r\n        for(uint i =0; i < realStateArray.length; i++){\r\n            if (keccak256(bytes(realStateArray[i].city)) == keccak256(bytes(_city))){\r\n                resultLength++;\r\n            }\r\n        }\r\n        RealState[] memory rsReturn = new RealState[](resultLength);\r\n        \r\n        uint positionInsert = 0;\r\n        for(uint i =0; i < realStateArray.length; i++){\r\n            if (keccak256(bytes(realStateArray[i].city)) == keccak256(bytes(_city))){\r\n                rsReturn[positionInsert] = realStateArray[i];\r\n                positionInsert++;\r\n            }\r\n        }\r\n\r\n        return rsReturn;\r\n    }\r\n}\r\n\r\n\r\n",
  "sourcePath": "D:\\Master\\Segundo\\NEW\\Blockchain\\Propiedades\\bnb1\\contracts\\RealStateContract.sol",
  "compiler": {
    "name": "solc",
    "version": "0.8.10+commit.fc410830.Emscripten.clang"
  },
  "schemaVersion": "3.4.16",
  "updatedAt": "2024-01-03T13:19:19.966Z",
  "networkType": "ethereum",
  "devdoc": {
    "kind": "dev",
    "methods": {},
    "version": 1
  },
  "userdoc": {
    "kind": "user",
    "methods": {},
    "version": 1
  }
}