{
  "contractName": "RealStateContractCities",
  "abi": [
    {
      "inputs": [
        {
          "internalType": "address",
          "name": "",
          "type": "address"
        }
      ],
      "name": "authorizedAddresses",
      "outputs": [
        {
          "internalType": "bool",
          "name": "",
          "type": "bool"
        }
      ],
      "stateMutability": "view",
      "type": "function",
      "constant": true
    },
    {
      "inputs": [
        {
          "internalType": "string",
          "name": "",
          "type": "string"
        },
        {
          "internalType": "uint256",
          "name": "",
          "type": "uint256"
        }
      ],
      "name": "realStateMap",
      "outputs": [
        {
          "internalType": "string",
          "name": "city",
          "type": "string"
        },
        {
          "internalType": "string",
          "name": "street",
          "type": "string"
        },
        {
          "internalType": "uint256",
          "name": "number",
          "type": "uint256"
        },
        {
          "internalType": "uint256",
          "name": "meters",
          "type": "uint256"
        },
        {
          "internalType": "uint256",
          "name": "registration",
          "type": "uint256"
        },
        {
          "internalType": "string",
          "name": "owner",
          "type": "string"
        },
        {
          "internalType": "uint256",
          "name": "price",
          "type": "uint256"
        }
      ],
      "stateMutability": "view",
      "type": "function",
      "constant": true
    },
    {
      "inputs": [
        {
          "internalType": "string",
          "name": "_city",
          "type": "string"
        }
      ],
      "name": "getRealStateByCity",
      "outputs": [
        {
          "components": [
            {
              "internalType": "string",
              "name": "city",
              "type": "string"
            },
            {
              "internalType": "string",
              "name": "street",
              "type": "string"
            },
            {
              "internalType": "uint256",
              "name": "number",
              "type": "uint256"
            },
            {
              "internalType": "uint256",
              "name": "meters",
              "type": "uint256"
            },
            {
              "internalType": "uint256",
              "name": "registration",
              "type": "uint256"
            },
            {
              "internalType": "string",
              "name": "owner",
              "type": "string"
            },
            {
              "internalType": "uint256",
              "name": "price",
              "type": "uint256"
            }
          ],
          "internalType": "struct Shared.RealState[]",
          "name": "",
          "type": "tuple[]"
        }
      ],
      "stateMutability": "view",
      "type": "function",
      "constant": true
    },
    {
      "inputs": [
        {
          "components": [
            {
              "internalType": "string",
              "name": "city",
              "type": "string"
            },
            {
              "internalType": "string",
              "name": "street",
              "type": "string"
            },
            {
              "internalType": "uint256",
              "name": "number",
              "type": "uint256"
            },
            {
              "internalType": "uint256",
              "name": "meters",
              "type": "uint256"
            },
            {
              "internalType": "uint256",
              "name": "registration",
              "type": "uint256"
            },
            {
              "internalType": "string",
              "name": "owner",
              "type": "string"
            },
            {
              "internalType": "uint256",
              "name": "price",
              "type": "uint256"
            }
          ],
          "internalType": "struct Shared.RealState",
          "name": "realState",
          "type": "tuple"
        }
      ],
      "name": "addRealState",
      "outputs": [],
      "stateMutability": "nonpayable",
      "type": "function"
    },
    {
      "inputs": [
        {
          "internalType": "address",
          "name": "toAuthorize",
          "type": "address"
        }
      ],
      "name": "authorizeAddress",
      "outputs": [],
      "stateMutability": "nonpayable",
      "type": "function"
    },
    {
      "inputs": [
        {
          "internalType": "string",
          "name": "_city",
          "type": "string"
        },
        {
          "internalType": "uint256",
          "name": "_registration",
          "type": "uint256"
        }
      ],
      "name": "deleteRealStateByRegistration",
      "outputs": [],
      "stateMutability": "nonpayable",
      "type": "function"
    }
  ],
  "bytecode": "0x60806040527350d3b84a2b1787b7704dd50c67733b6b5b293629600160006101000a81548173ffffffffffffffffffffffffffffffffffffffff021916908373ffffffffffffffffffffffffffffffffffffffff16021790555034801561006557600080fd5b50611f69806100756000396000f3fe608060405234801561001057600080fd5b50600436106100625760003560e01c80630de0623714610067578063201afd931461009757806320fc9d24146100b35780634a5db3b5146100cf5780637946bcf4146100eb578063f19e207e14610121575b600080fd5b610081600480360381019061007c91906110cb565b610151565b60405161008e9190611336565b60405180910390f35b6100b160048036038101906100ac9190611384565b610792565b005b6100cd60048036038101906100c89190611408565b610abf565b005b6100e960048036038101906100e491906114af565b610c13565b005b6101056004803603810190610100919061160c565b610cfe565b60405161011897969594939291906116c1565b60405180910390f35b61013b600480360381019061013691906114af565b610f0b565b6040516101489190611760565b60405180910390f35b6060600160009054906101000a900473ffffffffffffffffffffffffffffffffffffffff1673ffffffffffffffffffffffffffffffffffffffff163373ffffffffffffffffffffffffffffffffffffffff1614806101ff575060011515600260003373ffffffffffffffffffffffffffffffffffffffff1673ffffffffffffffffffffffffffffffffffffffff16815260200190815260200160002060009054906101000a900460ff161515145b1561045f57600083836040516102169291906117ab565b9081526020016040518091039020805480602002602001604051908101604052809291908181526020016000905b8282101561045457838290600052602060002090600702016040518060e0016040529081600082018054610277906117f3565b80601f01602080910402602001604051908101604052809291908181526020018280546102a3906117f3565b80156102f05780601f106102c5576101008083540402835291602001916102f0565b820191906000526020600020905b8154815290600101906020018083116102d357829003601f168201915b50505050508152602001600182018054610309906117f3565b80601f0160208091040260200160405190810160405280929190818152602001828054610335906117f3565b80156103825780601f1061035757610100808354040283529160200191610382565b820191906000526020600020905b81548152906001019060200180831161036557829003601f168201915b505050505081526020016002820154815260200160038201548152602001600482015481526020016005820180546103b9906117f3565b80601f01602080910402602001604051908101604052809291908181526020018280546103e5906117f3565b80156104325780601f1061040757610100808354040283529160200191610432565b820191906000526020600020905b81548152906001019060200180831161041557829003601f168201915b5050505050815260200160068201548152505081526020019060010190610244565b50505050905061078c565b60008084846040516104729291906117ab565b90815260200160405180910390208054905067ffffffffffffffff81111561049d5761049c6114e1565b5b6040519080825280602002602001820160405280156104d657816020015b6104c3610f2b565b8152602001906001900390816104bb5790505b50905060005b600085856040516104ee9291906117ab565b90815260200160405180910390208054905081101561078657600085856040516105199291906117ab565b9081526020016040518091039020818154811061053957610538611825565b5b90600052602060002090600702016040518060e0016040529081600082018054610562906117f3565b80601f016020809104026020016040519081016040528092919081815260200182805461058e906117f3565b80156105db5780601f106105b0576101008083540402835291602001916105db565b820191906000526020600020905b8154815290600101906020018083116105be57829003601f168201915b505050505081526020016001820180546105f4906117f3565b80601f0160208091040260200160405190810160405280929190818152602001828054610620906117f3565b801561066d5780601f106106425761010080835404028352916020019161066d565b820191906000526020600020905b81548152906001019060200180831161065057829003601f168201915b505050505081526020016002820154815260200160038201548152602001600482015481526020016005820180546106a4906117f3565b80601f01602080910402602001604051908101604052809291908181526020018280546106d0906117f3565b801561071d5780601f106106f25761010080835404028352916020019161071d565b820191906000526020600020905b81548152906001019060200180831161070057829003601f168201915b5050505050815260200160068201548152505082828151811061074357610742611825565b5b6020026020010181905250600082828151811061076357610762611825565b5b602002602001015160c0018181525050808061077e90611883565b9150506104dc565b50809150505b92915050565b60005b600084846040516107a79291906117ab565b908152602001604051809103902080549050811015610ab85781600085856040516107d39291906117ab565b908152602001604051809103902082815481106107f3576107f2611825565b5b9060005260206000209060070201600401541415610aa5576000848460405161081d9291906117ab565b9081526020016040518091039020818154811061083d5761083c611825565b5b90600052602060002090600702016000808201600061085c9190610f68565b60018201600061086c9190610f68565b6002820160009055600382016000905560048201600090556005820160006108949190610f68565b6006820160009055505060008190505b6001600086866040516108b89291906117ab565b9081526020016040518091039020805490506108d491906118cc565b811015610a0557600085856040516108ed9291906117ab565b90815260200160405180910390206001826109089190611900565b8154811061091957610918611825565b5b9060005260206000209060070201600086866040516109399291906117ab565b9081526020016040518091039020828154811061095957610958611825565b5b9060005260206000209060070201600082018160000190805461097b906117f3565b610986929190610fa8565b50600182018160010190805461099b906117f3565b6109a6929190610fa8565b5060028201548160020155600382015481600301556004820154816004015560058201816005019080546109d9906117f3565b6109e4929190610fa8565b506006820154816006015590505080806109fd90611883565b9150506108a4565b5060008484604051610a189291906117ab565b9081526020016040518091039020805480610a3657610a35611956565b5b600190038181906000526020600020906007020160008082016000610a5b9190610f68565b600182016000610a6b9190610f68565b600282016000905560038201600090556004820160009055600582016000610a939190610f68565b60068201600090555050905550610aba565b8080610ab090611883565b915050610795565b505b505050565b600160009054906101000a900473ffffffffffffffffffffffffffffffffffffffff1673ffffffffffffffffffffffffffffffffffffffff163373ffffffffffffffffffffffffffffffffffffffff161480610b6b575060011515600260003373ffffffffffffffffffffffffffffffffffffffff1673ffffffffffffffffffffffffffffffffffffffff16815260200190815260200160002060009054906101000a900460ff161515145b610baa576040517f08c379a0000000000000000000000000000000000000000000000000000000008152600401610ba1906119f7565b60405180910390fd5b6000818060000190610bbc9190611a26565b604051610bca9291906117ab565b90815260200160405180910390208190806001815401808255809150506001900390600052602060002090600702016000909190919091508181610c0e9190611e93565b505050565b600160009054906101000a900473ffffffffffffffffffffffffffffffffffffffff1673ffffffffffffffffffffffffffffffffffffffff163373ffffffffffffffffffffffffffffffffffffffff1614610ca3576040517f08c379a0000000000000000000000000000000000000000000000000000000008152600401610c9a90611f13565b60405180910390fd5b6001600260008373ffffffffffffffffffffffffffffffffffffffff1673ffffffffffffffffffffffffffffffffffffffff16815260200190815260200160002060006101000a81548160ff02191690831515021790555050565b6000828051602081018201805184825260208301602085012081835280955050505050508181548110610d3057600080fd5b906000526020600020906007020160009150915050806000018054610d54906117f3565b80601f0160208091040260200160405190810160405280929190818152602001828054610d80906117f3565b8015610dcd5780601f10610da257610100808354040283529160200191610dcd565b820191906000526020600020905b815481529060010190602001808311610db057829003601f168201915b505050505090806001018054610de2906117f3565b80601f0160208091040260200160405190810160405280929190818152602001828054610e0e906117f3565b8015610e5b5780601f10610e3057610100808354040283529160200191610e5b565b820191906000526020600020905b815481529060010190602001808311610e3e57829003601f168201915b505050505090806002015490806003015490806004015490806005018054610e82906117f3565b80601f0160208091040260200160405190810160405280929190818152602001828054610eae906117f3565b8015610efb5780601f10610ed057610100808354040283529160200191610efb565b820191906000526020600020905b815481529060010190602001808311610ede57829003601f168201915b5050505050908060060154905087565b60026020528060005260406000206000915054906101000a900460ff1681565b6040518060e00160405280606081526020016060815260200160008152602001600081526020016000815260200160608152602001600081525090565b508054610f74906117f3565b6000825580601f10610f865750610fa5565b601f016020900490600052602060002090810190610fa49190611035565b5b50565b828054610fb4906117f3565b90600052602060002090601f016020900481019282610fd65760008555611024565b82601f10610fe75780548555611024565b8280016001018555821561102457600052602060002091601f016020900482015b82811115611023578254825591600101919060010190611008565b5b5090506110319190611035565b5090565b5b8082111561104e576000816000905550600101611036565b5090565b6000604051905090565b600080fd5b600080fd5b600080fd5b600080fd5b600080fd5b60008083601f84011261108b5761108a611066565b5b8235905067ffffffffffffffff8111156110a8576110a761106b565b5b6020830191508360018202830111156110c4576110c3611070565b5b9250929050565b600080602083850312156110e2576110e161105c565b5b600083013567ffffffffffffffff811115611100576110ff611061565b5b61110c85828601611075565b92509250509250929050565b600081519050919050565b600082825260208201905092915050565b6000819050602082019050919050565b600081519050919050565b600082825260208201905092915050565b60005b8381101561117e578082015181840152602081019050611163565b8381111561118d576000848401525b50505050565b6000601f19601f8301169050919050565b60006111af82611144565b6111b9818561114f565b93506111c9818560208601611160565b6111d281611193565b840191505092915050565b6000819050919050565b6111f0816111dd565b82525050565b600060e083016000830151848203600086015261121382826111a4565b9150506020830151848203602086015261122d82826111a4565b915050604083015161124260408601826111e7565b50606083015161125560608601826111e7565b50608083015161126860808601826111e7565b5060a083015184820360a086015261128082826111a4565b91505060c083015161129560c08601826111e7565b508091505092915050565b60006112ac83836111f6565b905092915050565b6000602082019050919050565b60006112cc82611118565b6112d68185611123565b9350836020820285016112e885611134565b8060005b85811015611324578484038952815161130585826112a0565b9450611310836112b4565b925060208a019950506001810190506112ec565b50829750879550505050505092915050565b6000602082019050818103600083015261135081846112c1565b905092915050565b611361816111dd565b811461136c57600080fd5b50565b60008135905061137e81611358565b92915050565b60008060006040848603121561139d5761139c61105c565b5b600084013567ffffffffffffffff8111156113bb576113ba611061565b5b6113c786828701611075565b935093505060206113da8682870161136f565b9150509250925092565b600080fd5b600060e082840312156113ff576113fe6113e4565b5b81905092915050565b60006020828403121561141e5761141d61105c565b5b600082013567ffffffffffffffff81111561143c5761143b611061565b5b611448848285016113e9565b91505092915050565b600073ffffffffffffffffffffffffffffffffffffffff82169050919050565b600061147c82611451565b9050919050565b61148c81611471565b811461149757600080fd5b50565b6000813590506114a981611483565b92915050565b6000602082840312156114c5576114c461105c565b5b60006114d38482850161149a565b91505092915050565b600080fd5b7f4e487b7100000000000000000000000000000000000000000000000000000000600052604160045260246000fd5b61151982611193565b810181811067ffffffffffffffff82111715611538576115376114e1565b5b80604052505050565b600061154b611052565b90506115578282611510565b919050565b600067ffffffffffffffff821115611577576115766114e1565b5b61158082611193565b9050602081019050919050565b82818337600083830152505050565b60006115af6115aa8461155c565b611541565b9050828152602081018484840111156115cb576115ca6114dc565b5b6115d684828561158d565b509392505050565b600082601f8301126115f3576115f2611066565b5b813561160384826020860161159c565b91505092915050565b600080604083850312156116235761162261105c565b5b600083013567ffffffffffffffff81111561164157611640611061565b5b61164d858286016115de565b925050602061165e8582860161136f565b9150509250929050565b600082825260208201905092915050565b600061168482611144565b61168e8185611668565b935061169e818560208601611160565b6116a781611193565b840191505092915050565b6116bb816111dd565b82525050565b600060e08201905081810360008301526116db818a611679565b905081810360208301526116ef8189611679565b90506116fe60408301886116b2565b61170b60608301876116b2565b61171860808301866116b2565b81810360a083015261172a8185611679565b905061173960c08301846116b2565b98975050505050505050565b60008115159050919050565b61175a81611745565b82525050565b60006020820190506117756000830184611751565b92915050565b600081905092915050565b6000611792838561177b565b935061179f83858461158d565b82840190509392505050565b60006117b8828486611786565b91508190509392505050565b7f4e487b7100000000000000000000000000000000000000000000000000000000600052602260045260246000fd5b6000600282049050600182168061180b57607f821691505b6020821081141561181f5761181e6117c4565b5b50919050565b7f4e487b7100000000000000000000000000000000000000000000000000000000600052603260045260246000fd5b7f4e487b7100000000000000000000000000000000000000000000000000000000600052601160045260246000fd5b600061188e826111dd565b91507fffffffffffffffffffffffffffffffffffffffffffffffffffffffffffffffff8214156118c1576118c0611854565b5b600182019050919050565b60006118d7826111dd565b91506118e2836111dd565b9250828210156118f5576118f4611854565b5b828203905092915050565b600061190b826111dd565b9150611916836111dd565b9250827fffffffffffffffffffffffffffffffffffffffffffffffffffffffffffffffff0382111561194b5761194a611854565b5b828201905092915050565b7f4e487b7100000000000000000000000000000000000000000000000000000000600052603160045260246000fd5b7f596f7520646f206e6f742068617665207065726d697373696f6e7320746f206160008201527f64642061207265616c2073746174650000000000000000000000000000000000602082015250565b60006119e1602f83611668565b91506119ec82611985565b604082019050919050565b60006020820190508181036000830152611a10816119d4565b9050919050565b600080fd5b600080fd5b600080fd5b60008083356001602003843603038112611a4357611a42611a17565b5b80840192508235915067ffffffffffffffff821115611a6557611a64611a1c565b5b602083019250600182023603831315611a8157611a80611a21565b5b509250929050565b600082905092915050565b60008190508160005260206000209050919050565b60006020601f8301049050919050565b600082821b905092915050565b600060088302611af67fffffffffffffffffffffffffffffffffffffffffffffffffffffffffffffffff82611ab9565b611b008683611ab9565b95508019841693508086168417925050509392505050565b6000819050919050565b6000611b3d611b38611b33846111dd565b611b18565b6111dd565b9050919050565b6000819050919050565b611b5783611b22565b611b6b611b6382611b44565b848454611ac6565b825550505050565b600090565b611b80611b73565b611b8b818484611b4e565b505050565b5b81811015611baf57611ba4600082611b78565b600181019050611b91565b5050565b601f821115611bf457611bc581611a94565b611bce84611aa9565b81016020851015611bdd578190505b611bf1611be985611aa9565b830182611b90565b50505b505050565b600082821c905092915050565b6000611c1760001984600802611bf9565b1980831691505092915050565b6000611c308383611c06565b9150826002028217905092915050565b611c4a8383611a89565b67ffffffffffffffff811115611c6357611c626114e1565b5b611c6d82546117f3565b611c78828285611bb3565b6000601f831160018114611ca75760008415611c95578287013590505b611c9f8582611c24565b865550611d07565b601f198416611cb586611a94565b60005b82811015611cdd57848901358255600182019150602085019450602081019050611cb8565b86831015611cfa5784890135611cf6601f891682611c06565b8355505b6001600288020188555050505b50505050505050565b611d1b838383611c40565b505050565b60008135611d2d81611358565b80915050919050565b60008160001b9050919050565b60007fffffffffffffffffffffffffffffffffffffffffffffffffffffffffffffffff611d6f84611d36565b9350801983169250808416831791505092915050565b611d8e82611b22565b611da1611d9a82611b44565b8354611d43565b8255505050565b6000810160008301611dba8185611a26565b611dc5818386611d10565b505050506001810160208301611ddb8185611a26565b611de6818386611d10565b50505050600281016040830180611dfc81611d20565b9050611e088184611d85565b505050600381016060830180611e1d81611d20565b9050611e298184611d85565b505050600481016080830180611e3e81611d20565b9050611e4a8184611d85565b5050506005810160a08301611e5f8185611a26565b611e6a818386611d10565b505050506006810160c0830180611e8081611d20565b9050611e8c8184611d85565b5050505050565b611e9d8282611da8565b5050565b7f4f6e6c79207468652061646d696e2063616e20617574686f72697a652061646460008201527f7265737365730000000000000000000000000000000000000000000000000000602082015250565b6000611efd602683611668565b9150611f0882611ea1565b604082019050919050565b60006020820190508181036000830152611f2c81611ef0565b905091905056fea26469706673582212202a4cc8992f51dc19da33577444635244d73b5ff735db0d4244a6c0aabe5a96c764736f6c634300080a0033",
  "immutableReferences": {},
  "source": "pragma solidity ^0.8.10;\r\n\r\nlibrary Shared {\r\n    struct RealState {\r\n        string city;\r\n        string street;\r\n        uint number;\r\n        uint meters;\r\n        uint registration;\r\n        string owner;\r\n        uint price;\r\n    }\r\n}\r\n\r\ncontract RealStateContractCities {\r\n    mapping( string => Shared.RealState[]) public realStateMap;\r\n    address addressAdmin  = address(0x50d3b84a2b1787b7704DD50c67733b6b5B293629);\r\n    mapping(address => bool) public authorizedAddresses;\r\n\r\n    function getRealStateByCity (string calldata _city) public view returns(Shared.RealState[] memory) {\r\n\r\n        if (msg.sender == addressAdmin || authorizedAddresses[msg.sender] == true) {\r\n            return realStateMap[_city];\r\n        }\r\n\r\n        Shared.RealState[] memory privatePricedRealState = new Shared.RealState[](realStateMap[_city].length);\r\n\r\n        for (uint256 i = 0; i < realStateMap[_city].length; i++) {\r\n            privatePricedRealState[i] = realStateMap[_city][i];\r\n            privatePricedRealState[i].price = 0;\r\n        }\r\n\r\n        return privatePricedRealState;\r\n    }\r\n\r\n    function addRealState (Shared.RealState calldata realState) public {\r\n        require(msg.sender == addressAdmin || authorizedAddresses[msg.sender] == true, \"You do not have permissions to add a real state\");\r\n        realStateMap[realState.city].push(realState);\r\n    }\r\n\r\n    function authorizeAddress(address toAuthorize) public {\r\n        require(msg.sender == addressAdmin, \"Only the admin can authorize addresses\");\r\n        authorizedAddresses[toAuthorize] = true;\r\n    }\r\n\r\n    function deleteRealStateByRegistration(string calldata _city, uint _registration) public {\r\n\r\n        for(uint i =0; i < realStateMap[_city].length; i++){\r\n            if (realStateMap[_city][i].registration == _registration){\r\n                delete realStateMap[_city][i];\r\n\r\n                for(uint j =i; j < realStateMap[_city].length-1; j++){\r\n                    realStateMap[_city][j] = realStateMap[_city][j+1];\r\n                }\r\n\r\n                realStateMap[_city].pop(); // delete the last\r\n                // Important to reduce -1 the leght of array\r\n\r\n                return; // for finish method\r\n            }\r\n        }\r\n    }\r\n}\r\n\r\ncontract RealStateContract{\r\n    \r\n    struct RealState {\r\n        string city;\r\n        string street;\r\n        uint number;\r\n        uint meters;\r\n        uint registration;\r\n        string owner;\r\n        uint price;\r\n    }\r\n\r\n    RealState[] public realStateArray;\r\n\r\n    function addRealState(string calldata _city, string calldata _street, \r\n            uint _number, uint _meters, uint _registration, string calldata _owner, uint _price) public {\r\n        \r\n        realStateArray.push(RealState(_city,_street,_number,_meters,_registration,_owner,_price));\r\n    }\r\n\r\n    function getRealStateByRegistration (uint _registration) public view returns(RealState memory) {\r\n        for(uint i =0; i < realStateArray.length; i++){\r\n            if (realStateArray[i].registration == _registration){\r\n                return realStateArray[i];\r\n            }\r\n        }\r\n        revert(\"Not found RealState with this registration\");\r\n    }\r\n\r\n    function deleteRealStateByRegistration(uint _registration) public {\r\n        for(uint i =0; i < realStateArray.length; i++){\r\n            if (realStateArray[i].registration == _registration){\r\n                delete realStateArray[i];\r\n\r\n                for(uint j =i; j < realStateArray.length-1; j++){\r\n                    realStateArray[j] = realStateArray[j+1];\r\n                }\r\n\r\n                realStateArray.pop(); // delete the last\r\n                // Important to reduce -1 the leght of array\r\n\r\n                return; // for finish method\r\n            }\r\n        }\r\n    }\r\n\r\n    function getRealStateByCity (string calldata _city) public view returns(RealState[] memory) {\r\n        uint resultLength = 0;\r\n        for(uint i =0; i < realStateArray.length; i++){\r\n            if (keccak256(bytes(realStateArray[i].city)) == keccak256(bytes(_city))){\r\n                resultLength++;\r\n            }\r\n        }\r\n        RealState[] memory rsReturn = new RealState[](resultLength);\r\n        \r\n        uint positionInsert = 0;\r\n        for(uint i =0; i < realStateArray.length; i++){\r\n            if (keccak256(bytes(realStateArray[i].city)) == keccak256(bytes(_city))){\r\n                rsReturn[positionInsert] = realStateArray[i];\r\n                positionInsert++;\r\n            }\r\n        }\r\n\r\n        return rsReturn;\r\n    }\r\n}\r\n\r\n\r\n",
  "sourcePath": "D:\\Master\\Segundo\\NEW\\Blockchain\\Propiedades\\bnb1\\contracts\\RealStateContract.sol",
  "compiler": {
    "name": "solc",
    "version": "0.8.10+commit.fc410830.Emscripten.clang"
  },
  "schemaVersion": "3.4.16",
  "updatedAt": "2024-01-03T13:19:19.973Z",
  "networkType": "ethereum",
  "devdoc": {
    "kind": "dev",
    "methods": {},
    "version": 1
  },
  "userdoc": {
    "kind": "user",
    "methods": {},
    "version": 1
  }
}